{"contracts/polymarket.sol":{"PredictionMarket":{"abi":[{"inputs":[],"stateMutability":"nonpayable","type":"constructor"},{"anonymous":false,"inputs":[{"indexed":true,"internalType":"uint256","name":"marketId","type":"uint256"},{"indexed":true,"internalType":"address","name":"bettor","type":"address"},{"indexed":false,"internalType":"bool","name":"outcome","type":"bool"},{"indexed":false,"internalType":"uint256","name":"amount","type":"uint256"}],"name":"BetPlaced","type":"event"},{"anonymous":false,"inputs":[{"indexed":true,"internalType":"uint256","name":"marketId","type":"uint256"},{"indexed":true,"internalType":"address","name":"creator","type":"address"},{"indexed":false,"internalType":"uint256","name":"resolutionDate","type":"uint256"}],"name":"MarketCreated","type":"event"},{"anonymous":false,"inputs":[{"indexed":true,"internalType":"uint256","name":"marketId","type":"uint256"},{"indexed":false,"internalType":"bool","name":"outcome","type":"bool"}],"name":"MarketResolved","type":"event"},{"anonymous":false,"inputs":[{"indexed":true,"internalType":"uint256","name":"marketId","type":"uint256"},{"indexed":true,"internalType":"address","name":"bettor","type":"address"},{"indexed":false,"internalType":"uint256","name":"amount","type":"uint256"}],"name":"PayoutClaimed","type":"event"},{"inputs":[{"internalType":"uint256","name":"_marketId","type":"uint256"}],"name":"claimPayout","outputs":[],"stateMutability":"nonpayable","type":"function"},{"inputs":[{"internalType":"bytes","name":"_metadata","type":"bytes"},{"internalType":"uint256","name":"_resolutionDate","type":"uint256"}],"name":"createMarket","outputs":[],"stateMutability":"payable","type":"function"},{"inputs":[{"internalType":"uint256","name":"_marketId","type":"uint256"}],"name":"getMarketMetadata","outputs":[{"internalType":"address","name":"creator","type":"address"},{"internalType":"bytes","name":"metadata","type":"bytes"}],"stateMutability":"view","type":"function"},{"inputs":[{"internalType":"uint256","name":"_marketId","type":"uint256"}],"name":"getMarketShares","outputs":[{"internalType":"uint256","name":"yesShares","type":"uint256"},{"internalType":"uint256","name":"noShares","type":"uint256"}],"stateMutability":"view","type":"function"},{"inputs":[{"internalType":"uint256","name":"_marketId","type":"uint256"}],"name":"getMarketStatus","outputs":[{"internalType":"uint256","name":"resolutionDate","type":"uint256"},{"internalType":"uint256","name":"initialLiquidity","type":"uint256"},{"internalType":"bool","name":"resolved","type":"bool"},{"internalType":"bool","name":"outcome","type":"bool"},{"internalType":"bool","name":"active","type":"bool"}],"stateMutability":"view","type":"function"},{"inputs":[{"internalType":"uint256","name":"_marketId","type":"uint256"},{"internalType":"address","name":"_user","type":"address"}],"name":"getUserBets","outputs":[{"internalType":"uint256","name":"yesBet","type":"uint256"},{"internalType":"uint256","name":"noBet","type":"uint256"}],"stateMutability":"view","type":"function"},{"inputs":[],"name":"marketCount","outputs":[{"internalType":"uint256","name":"","type":"uint256"}],"stateMutability":"view","type":"function"},{"inputs":[{"internalType":"uint256","name":"","type":"uint256"}],"name":"markets","outputs":[{"internalType":"uint256","name":"id","type":"uint256"},{"internalType":"address","name":"creator","type":"address"},{"internalType":"bytes","name":"metadata","type":"bytes"},{"internalType":"uint256","name":"resolutionDate","type":"uint256"},{"internalType":"uint256","name":"initialLiquidity","type":"uint256"},{"internalType":"bool","name":"resolved","type":"bool"},{"internalType":"bool","name":"outcome","type":"bool"},{"internalType":"uint256","name":"yesShares","type":"uint256"},{"internalType":"uint256","name":"noShares","type":"uint256"},{"internalType":"bool","name":"active","type":"bool"}],"stateMutability":"view","type":"function"},{"inputs":[{"internalType":"uint256","name":"","type":"uint256"},{"internalType":"address","name":"","type":"address"}],"name":"noBets","outputs":[{"internalType":"uint256","name":"","type":"uint256"}],"stateMutability":"view","type":"function"},{"inputs":[],"name":"owner","outputs":[{"internalType":"address","name":"","type":"address"}],"stateMutability":"view","type":"function"},{"inputs":[{"internalType":"uint256","name":"_marketId","type":"uint256"},{"internalType":"bool","name":"_outcome","type":"bool"}],"name":"placeBet","outputs":[],"stateMutability":"payable","type":"function"},{"inputs":[{"internalType":"uint256","name":"_marketId","type":"uint256"},{"internalType":"bool","name":"_outcome","type":"bool"}],"name":"resolveMarket","outputs":[],"stateMutability":"nonpayable","type":"function"},{"inputs":[{"internalType":"uint256","name":"","type":"uint256"},{"internalType":"address","name":"","type":"address"}],"name":"yesBets","outputs":[{"internalType":"uint256","name":"","type":"uint256"}],"stateMutability":"view","type":"function"}],"evm":{"bytecode":{"linkReferences":{},"object":"608060405234801561001057600080fd5b50336000806101000a81548173ffffffffffffffffffffffffffffffffffffffff021916908373ffffffffffffffffffffffffffffffffffffffff16021790555060006001819055506123eb806100686000396000f3fe6080604052600436106100c25760003560e01c80638a69614e1161007f578063b1283e7711610059578063b1283e7714610272578063ec5a711a146102b8578063ec979082146102f9578063fa744dd314610324576100c2565b80638a69614e146102025780638da5cb5b1461022b5780639ed9c74d14610256576100c2565b806305a7e5b7146100c7578063155e4b8214610105578063354c6199146101425780634bcbb25d1461017f57806357bde4461461019b5780636b6445b6146101c4575b600080fd5b3480156100d357600080fd5b506100ee60048036038101906100e99190611443565b610362565b6040516100fc92919061147f565b60405180910390f35b34801561011157600080fd5b5061012c60048036038101906101279190611506565b6103e3565b6040516101399190611546565b60405180910390f35b34801561014e57600080fd5b5061016960048036038101906101649190611506565b610408565b6040516101769190611546565b60405180910390f35b610199600480360381019061019491906116a7565b61042d565b005b3480156101a757600080fd5b506101c260048036038101906101bd919061173b565b61063c565b005b3480156101d057600080fd5b506101eb60048036038101906101e69190611443565b61088c565b6040516101f9929190611809565b60405180910390f35b34801561020e57600080fd5b5061022960048036038101906102249190611443565b6109b9565b005b34801561023757600080fd5b50610240610dd3565b60405161024d9190611839565b60405180910390f35b610270600480360381019061026b919061173b565b610df7565b005b34801561027e57600080fd5b5061029960048036038101906102949190611443565b611107565b6040516102af9a99989796959493929190611863565b60405180910390f35b3480156102c457600080fd5b506102df60048036038101906102da9190611443565b61122a565b6040516102f0959493929190611906565b60405180910390f35b34801561030557600080fd5b5061030e6112f0565b60405161031b9190611546565b60405180910390f35b34801561033057600080fd5b5061034b60048036038101906103469190611506565b6112f6565b60405161035992919061147f565b60405180910390f35b6000808260015481111580156103785750600081115b6103b7576040517f08c379a00000000000000000000000000000000000000000000000000000000081526004016103ae906119b6565b60405180910390fd5b600060026000868152602001908152602001600020905080600601548160070154935093505050915091565b6004602052816000526040600020602052806000526040600020600091509150505481565b6003602052816000526040600020602052806000526040600020600091509150505481565b6000825111610471576040517f08c379a000000000000000000000000000000000000000000000000000000000815260040161046890611a22565b60405180910390fd5b4281116104b3576040517f08c379a00000000000000000000000000000000000000000000000000000000081526004016104aa90611ab4565b60405180910390fd5b655af3107a40003410156104fc576040517f08c379a00000000000000000000000000000000000000000000000000000000081526004016104f390611b46565b60405180910390fd5b6001600081548092919061050f90611b95565b9190505550600060026000600154815260200190815260200160002090506001548160000181905550338160010160006101000a81548173ffffffffffffffffffffffffffffffffffffffff021916908373ffffffffffffffffffffffffffffffffffffffff1602179055508281600201908161058c9190611de9565b508181600301819055503481600401819055506002346105ac9190611eea565b81600601819055506002346105c19190611eea565b816007018190555060018160080160006101000a81548160ff0219169083151502179055503373ffffffffffffffffffffffffffffffffffffffff166001547f557e20be357a3ff3fc08cf2b8e6986333057886a281d0409a7e751c3fd700ec08460405161062f9190611546565b60405180910390a3505050565b816002600082815260200190815260200160002060010160009054906101000a900473ffffffffffffffffffffffffffffffffffffffff1673ffffffffffffffffffffffffffffffffffffffff163373ffffffffffffffffffffffffffffffffffffffff16146106e1576040517f08c379a00000000000000000000000000000000000000000000000000000000081526004016106d890611f8d565b60405180910390fd5b8260015481111580156106f45750600081115b610733576040517f08c379a000000000000000000000000000000000000000000000000000000000815260040161072a906119b6565b60405180910390fd5b836002600082815260200190815260200160002060050160009054906101000a900460ff1615610798576040517f08c379a000000000000000000000000000000000000000000000000000000000815260040161078f90611ff9565b60405180910390fd5b600060026000878152602001908152602001600020905080600301544210156107f6576040517f08c379a00000000000000000000000000000000000000000000000000000000081526004016107ed90612065565b60405180910390fd5b60018160050160006101000a81548160ff021916908315150217905550848160050160016101000a81548160ff02191690831515021790555060008160080160006101000a81548160ff021916908315150217905550857f4927fe38919783250023d27e65a3e56b6b5c3e49364e51674a41ef08d62460d98660405161087c9190612085565b60405180910390a2505050505050565b600060608260015481111580156108a35750600081115b6108e2576040517f08c379a00000000000000000000000000000000000000000000000000000000081526004016108d9906119b6565b60405180910390fd5b60006002600086815260200190815260200160002090508060010160009054906101000a900473ffffffffffffffffffffffffffffffffffffffff168160020180805461092e90611c0c565b80601f016020809104026020016040519081016040528092919081815260200182805461095a90611c0c565b80156109a75780601f1061097c576101008083540402835291602001916109a7565b820191906000526020600020905b81548152906001019060200180831161098a57829003601f168201915b50505050509050935093505050915091565b8060015481111580156109cc5750600081115b610a0b576040517f08c379a0000000000000000000000000000000000000000000000000000000008152600401610a02906119b6565b60405180910390fd5b60006002600084815260200190815260200160002090508060050160009054906101000a900460ff16610a73576040517f08c379a0000000000000000000000000000000000000000000000000000000008152600401610a6a906120ec565b60405180910390fd5b60008160050160019054906101000a900460ff16610ae1576004600085815260200190815260200160002060003373ffffffffffffffffffffffffffffffffffffffff1673ffffffffffffffffffffffffffffffffffffffff16815260200190815260200160002054610b33565b6003600085815260200190815260200160002060003373ffffffffffffffffffffffffffffffffffffffff1673ffffffffffffffffffffffffffffffffffffffff168152602001908152602001600020545b905060008111610b78576040517f08c379a0000000000000000000000000000000000000000000000000000000008152600401610b6f90612158565b60405180910390fd5b60008260050160019054906101000a900460ff16610b9a578260070154610ba0565b82600601545b9050600083600701548460060154610bb89190612178565b90506000828285610bc991906121ac565b610bd39190611eea565b905060006064600283610be691906121ac565b610bf09190611eea565b905060008183610c0091906121ee565b90508660050160019054906101000a900460ff1615610c74576000600360008b815260200190815260200160002060003373ffffffffffffffffffffffffffffffffffffffff1673ffffffffffffffffffffffffffffffffffffffff16815260200190815260200160002081905550610ccb565b6000600460008b815260200190815260200160002060003373ffffffffffffffffffffffffffffffffffffffff1673ffffffffffffffffffffffffffffffffffffffff168152602001908152602001600020819055505b60008054906101000a900473ffffffffffffffffffffffffffffffffffffffff1673ffffffffffffffffffffffffffffffffffffffff166108fc839081150290604051600060405180830381858888f19350505050158015610d31573d6000803e3d6000fd5b503373ffffffffffffffffffffffffffffffffffffffff166108fc829081150290604051600060405180830381858888f19350505050158015610d78573d6000803e3d6000fd5b503373ffffffffffffffffffffffffffffffffffffffff16897fe97cee5a4c0549d3fdc81e322b718ddf0aeb3418ec87dce4f9a7fb28d117c31283604051610dc09190611546565b60405180910390a3505050505050505050565b60008054906101000a900473ffffffffffffffffffffffffffffffffffffffff1681565b816001548111158015610e0a5750600081115b610e49576040517f08c379a0000000000000000000000000000000000000000000000000000000008152600401610e40906119b6565b60405180910390fd5b826002600082815260200190815260200160002060050160009054906101000a900460ff1615610eae576040517f08c379a0000000000000000000000000000000000000000000000000000000008152600401610ea590611ff9565b60405180910390fd5b60006002600086815260200190815260200160002090508060080160009054906101000a900460ff16610f16576040517f08c379a0000000000000000000000000000000000000000000000000000000008152600401610f0d9061226e565b60405180910390fd5b80600301544210610f5c576040517f08c379a0000000000000000000000000000000000000000000000000000000008152600401610f53906122da565b60405180910390fd5b60003411610f9f576040517f08c379a0000000000000000000000000000000000000000000000000000000008152600401610f969061236c565b60405180910390fd5b831561102c5734816006016000828254610fb99190612178565b92505081905550346003600087815260200190815260200160002060003373ffffffffffffffffffffffffffffffffffffffff1673ffffffffffffffffffffffffffffffffffffffff16815260200190815260200160002060008282546110209190612178565b925050819055506110af565b348160070160008282546110409190612178565b92505081905550346004600087815260200190815260200160002060003373ffffffffffffffffffffffffffffffffffffffff1673ffffffffffffffffffffffffffffffffffffffff16815260200190815260200160002060008282546110a79190612178565b925050819055505b3373ffffffffffffffffffffffffffffffffffffffff16857f4af71b021e799c62c158bd54636ca8da2fa26115a21a2dc6efe486ec104fd15f86346040516110f892919061238c565b60405180910390a35050505050565b60026020528060005260406000206000915090508060000154908060010160009054906101000a900473ffffffffffffffffffffffffffffffffffffffff169080600201805461115690611c0c565b80601f016020809104026020016040519081016040528092919081815260200182805461118290611c0c565b80156111cf5780601f106111a4576101008083540402835291602001916111cf565b820191906000526020600020905b8154815290600101906020018083116111b257829003601f168201915b5050505050908060030154908060040154908060050160009054906101000a900460ff16908060050160019054906101000a900460ff16908060060154908060070154908060080160009054906101000a900460ff1690508a565b60008060008060008560015481111580156112455750600081115b611284576040517f08c379a000000000000000000000000000000000000000000000000000000000815260040161127b906119b6565b60405180910390fd5b6000600260008981526020019081526020016000209050806003015481600401548260050160009054906101000a900460ff168360050160019054906101000a900460ff168460080160009054906101000a900460ff1696509650965096509650505091939590929450565b60015481565b60008083600154811115801561130c5750600081115b61134b576040517f08c379a0000000000000000000000000000000000000000000000000000000008152600401611342906119b6565b60405180910390fd5b6003600086815260200190815260200160002060008573ffffffffffffffffffffffffffffffffffffffff1673ffffffffffffffffffffffffffffffffffffffff168152602001908152602001600020546004600087815260200190815260200160002060008673ffffffffffffffffffffffffffffffffffffffff1673ffffffffffffffffffffffffffffffffffffffff1681526020019081526020016000205492509250509250929050565b6000604051905090565b600080fd5b600080fd5b6000819050919050565b6114208161140d565b811461142b57600080fd5b50565b60008135905061143d81611417565b92915050565b60006020828403121561145957611458611403565b5b60006114678482850161142e565b91505092915050565b6114798161140d565b82525050565b60006040820190506114946000830185611470565b6114a16020830184611470565b9392505050565b600073ffffffffffffffffffffffffffffffffffffffff82169050919050565b60006114d3826114a8565b9050919050565b6114e3816114c8565b81146114ee57600080fd5b50565b600081359050611500816114da565b92915050565b6000806040838503121561151d5761151c611403565b5b600061152b8582860161142e565b925050602061153c858286016114f1565b9150509250929050565b600060208201905061155b6000830184611470565b92915050565b600080fd5b600080fd5b6000601f19601f8301169050919050565b7f4e487b7100000000000000000000000000000000000000000000000000000000600052604160045260246000fd5b6115b48261156b565b810181811067ffffffffffffffff821117156115d3576115d261157c565b5b80604052505050565b60006115e66113f9565b90506115f282826115ab565b919050565b600067ffffffffffffffff8211156116125761161161157c565b5b61161b8261156b565b9050602081019050919050565b82818337600083830152505050565b600061164a611645846115f7565b6115dc565b90508281526020810184848401111561166657611665611566565b5b611671848285611628565b509392505050565b600082601f83011261168e5761168d611561565b5b813561169e848260208601611637565b91505092915050565b600080604083850312156116be576116bd611403565b5b600083013567ffffffffffffffff8111156116dc576116db611408565b5b6116e885828601611679565b92505060206116f98582860161142e565b9150509250929050565b60008115159050919050565b61171881611703565b811461172357600080fd5b50565b6000813590506117358161170f565b92915050565b6000806040838503121561175257611751611403565b5b60006117608582860161142e565b925050602061177185828601611726565b9150509250929050565b611784816114c8565b82525050565b600081519050919050565b600082825260208201905092915050565b60005b838110156117c45780820151818401526020810190506117a9565b60008484015250505050565b60006117db8261178a565b6117e58185611795565b93506117f58185602086016117a6565b6117fe8161156b565b840191505092915050565b600060408201905061181e600083018561177b565b818103602083015261183081846117d0565b90509392505050565b600060208201905061184e600083018461177b565b92915050565b61185d81611703565b82525050565b600061014082019050611879600083018d611470565b611886602083018c61177b565b8181036040830152611898818b6117d0565b90506118a7606083018a611470565b6118b46080830189611470565b6118c160a0830188611854565b6118ce60c0830187611854565b6118db60e0830186611470565b6118e9610100830185611470565b6118f7610120830184611854565b9b9a5050505050505050505050565b600060a08201905061191b6000830188611470565b6119286020830187611470565b6119356040830186611854565b6119426060830185611854565b61194f6080830184611854565b9695505050505050565b600082825260208201905092915050565b7f4d61726b657420646f6573206e6f742065786973740000000000000000000000600082015250565b60006119a0601583611959565b91506119ab8261196a565b602082019050919050565b600060208201905081810360008301526119cf81611993565b9050919050565b7f4d657461646174612063616e6e6f7420626520656d7074790000000000000000600082015250565b6000611a0c601883611959565b9150611a17826119d6565b602082019050919050565b60006020820190508181036000830152611a3b816119ff565b9050919050565b7f5265736f6c7574696f6e2064617465206d75737420626520696e20746865206660008201527f7574757265000000000000000000000000000000000000000000000000000000602082015250565b6000611a9e602583611959565b9150611aa982611a42565b604082019050919050565b60006020820190508181036000830152611acd81611a91565b9050919050565b7f496e697469616c206c6971756964697479206d757374206265206174206c656160008201527f737420302e312045544800000000000000000000000000000000000000000000602082015250565b6000611b30602a83611959565b9150611b3b82611ad4565b604082019050919050565b60006020820190508181036000830152611b5f81611b23565b9050919050565b7f4e487b7100000000000000000000000000000000000000000000000000000000600052601160045260246000fd5b6000611ba08261140d565b91507fffffffffffffffffffffffffffffffffffffffffffffffffffffffffffffffff8203611bd257611bd1611b66565b5b600182019050919050565b7f4e487b7100000000000000000000000000000000000000000000000000000000600052602260045260246000fd5b60006002820490506001821680611c2457607f821691505b602082108103611c3757611c36611bdd565b5b50919050565b60008190508160005260206000209050919050565b60006020601f8301049050919050565b600082821b905092915050565b600060088302611c9f7fffffffffffffffffffffffffffffffffffffffffffffffffffffffffffffffff82611c62565b611ca98683611c62565b95508019841693508086168417925050509392505050565b6000819050919050565b6000611ce6611ce1611cdc8461140d565b611cc1565b61140d565b9050919050565b6000819050919050565b611d0083611ccb565b611d14611d0c82611ced565b848454611c6f565b825550505050565b600090565b611d29611d1c565b611d34818484611cf7565b505050565b5b81811015611d5857611d4d600082611d21565b600181019050611d3a565b5050565b601f821115611d9d57611d6e81611c3d565b611d7784611c52565b81016020851015611d86578190505b611d9a611d9285611c52565b830182611d39565b50505b505050565b600082821c905092915050565b6000611dc060001984600802611da2565b1980831691505092915050565b6000611dd98383611daf565b9150826002028217905092915050565b611df28261178a565b67ffffffffffffffff811115611e0b57611e0a61157c565b5b611e158254611c0c565b611e20828285611d5c565b600060209050601f831160018114611e535760008415611e41578287015190505b611e4b8582611dcd565b865550611eb3565b601f198416611e6186611c3d565b60005b82811015611e8957848901518255600182019150602085019450602081019050611e64565b86831015611ea65784890151611ea2601f891682611daf565b8355505b6001600288020188555050505b505050505050565b7f4e487b7100000000000000000000000000000000000000000000000000000000600052601260045260246000fd5b6000611ef58261140d565b9150611f008361140d565b925082611f1057611f0f611ebb565b5b828204905092915050565b7f4f6e6c792063726561746f722063616e20706572666f726d207468697320616360008201527f74696f6e00000000000000000000000000000000000000000000000000000000602082015250565b6000611f77602483611959565b9150611f8282611f1b565b604082019050919050565b60006020820190508181036000830152611fa681611f6a565b9050919050565b7f4d61726b657420616c7265616479207265736f6c766564000000000000000000600082015250565b6000611fe3601783611959565b9150611fee82611fad565b602082019050919050565b6000602082019050818103600083015261201281611fd6565b9050919050565b7f5265736f6c7574696f6e2064617465206e6f7420726561636865640000000000600082015250565b600061204f601b83611959565b915061205a82612019565b602082019050919050565b6000602082019050818103600083015261207e81612042565b9050919050565b600060208201905061209a6000830184611854565b92915050565b7f4d61726b6574206e6f74207265736f6c76656400000000000000000000000000600082015250565b60006120d6601383611959565b91506120e1826120a0565b602082019050919050565b60006020820190508181036000830152612105816120c9565b9050919050565b7f4e6f2077696e6e696e672062657420746f20636c61696d000000000000000000600082015250565b6000612142601783611959565b915061214d8261210c565b602082019050919050565b6000602082019050818103600083015261217181612135565b9050919050565b60006121838261140d565b915061218e8361140d565b92508282019050808211156121a6576121a5611b66565b5b92915050565b60006121b78261140d565b91506121c28361140d565b92508282026121d08161140d565b915082820484148315176121e7576121e6611b66565b5b5092915050565b60006121f98261140d565b91506122048361140d565b925082820390508181111561221c5761221b611b66565b5b92915050565b7f4d61726b6574206973206e6f7420616374697665000000000000000000000000600082015250565b6000612258601483611959565b915061226382612222565b602082019050919050565b600060208201905081810360008301526122878161224b565b9050919050565b7f4d61726b65742068617320657870697265640000000000000000000000000000600082015250565b60006122c4601283611959565b91506122cf8261228e565b602082019050919050565b600060208201905081810360008301526122f3816122b7565b9050919050565b7f42657420616d6f756e74206d7573742062652067726561746572207468616e2060008201527f7a65726f00000000000000000000000000000000000000000000000000000000602082015250565b6000612356602483611959565b9150612361826122fa565b604082019050919050565b6000602082019050818103600083015261238581612349565b9050919050565b60006040820190506123a16000830185611854565b6123ae6020830184611470565b939250505056fea2646970667358221220cc16c40bf41513dcedae29918523833323089562a1d757462e96f6373aa1b22c64736f6c63430008140033","opcodes":"PUSH1 0x80 PUSH1 0x40 MSTORE CALLVALUE DUP1 ISZERO PUSH2 0x10 JUMPI PUSH1 0x0 DUP1 REVERT JUMPDEST POP CALLER PUSH1 0x0 DUP1 PUSH2 0x100 EXP DUP2 SLOAD DUP2 PUSH20 0xFFFFFFFFFFFFFFFFFFFFFFFFFFFFFFFFFFFFFFFF MUL NOT AND SWAP1 DUP4 PUSH20 0xFFFFFFFFFFFFFFFFFFFFFFFFFFFFFFFFFFFFFFFF AND MUL OR SWAP1 SSTORE POP PUSH1 0x0 PUSH1 0x1 DUP2 SWAP1 SSTORE POP PUSH2 0x23EB DUP1 PUSH2 0x68 PUSH1 0x0 CODECOPY PUSH1 0x0 RETURN INVALID PUSH1 0x80 PUSH1 0x40 MSTORE PUSH1 0x4 CALLDATASIZE LT PUSH2 0xC2 JUMPI PUSH1 0x0 CALLDATALOAD PUSH1 0xE0 SHR DUP1 PUSH4 0x8A69614E GT PUSH2 0x7F JUMPI DUP1 PUSH4 0xB1283E77 GT PUSH2 0x59 JUMPI DUP1 PUSH4 0xB1283E77 EQ PUSH2 0x272 JUMPI DUP1 PUSH4 0xEC5A711A EQ PUSH2 0x2B8 JUMPI DUP1 PUSH4 0xEC979082 EQ PUSH2 0x2F9 JUMPI DUP1 PUSH4 0xFA744DD3 EQ PUSH2 0x324 JUMPI PUSH2 0xC2 JUMP JUMPDEST DUP1 PUSH4 0x8A69614E EQ PUSH2 0x202 JUMPI DUP1 PUSH4 0x8DA5CB5B EQ PUSH2 0x22B JUMPI DUP1 PUSH4 0x9ED9C74D EQ PUSH2 0x256 JUMPI PUSH2 0xC2 JUMP JUMPDEST DUP1 PUSH4 0x5A7E5B7 EQ PUSH2 0xC7 JUMPI DUP1 PUSH4 0x155E4B82 EQ PUSH2 0x105 JUMPI DUP1 PUSH4 0x354C6199 EQ PUSH2 0x142 JUMPI DUP1 PUSH4 0x4BCBB25D EQ PUSH2 0x17F JUMPI DUP1 PUSH4 0x57BDE446 EQ PUSH2 0x19B JUMPI DUP1 PUSH4 0x6B6445B6 EQ PUSH2 0x1C4 JUMPI JUMPDEST PUSH1 0x0 DUP1 REVERT JUMPDEST CALLVALUE DUP1 ISZERO PUSH2 0xD3 JUMPI PUSH1 0x0 DUP1 REVERT JUMPDEST POP PUSH2 0xEE PUSH1 0x4 DUP1 CALLDATASIZE SUB DUP2 ADD SWAP1 PUSH2 0xE9 SWAP2 SWAP1 PUSH2 0x1443 JUMP JUMPDEST PUSH2 0x362 JUMP JUMPDEST PUSH1 0x40 MLOAD PUSH2 0xFC SWAP3 SWAP2 SWAP1 PUSH2 0x147F JUMP JUMPDEST PUSH1 0x40 MLOAD DUP1 SWAP2 SUB SWAP1 RETURN JUMPDEST CALLVALUE DUP1 ISZERO PUSH2 0x111 JUMPI PUSH1 0x0 DUP1 REVERT JUMPDEST POP PUSH2 0x12C PUSH1 0x4 DUP1 CALLDATASIZE SUB DUP2 ADD SWAP1 PUSH2 0x127 SWAP2 SWAP1 PUSH2 0x1506 JUMP JUMPDEST PUSH2 0x3E3 JUMP JUMPDEST PUSH1 0x40 MLOAD PUSH2 0x139 SWAP2 SWAP1 PUSH2 0x1546 JUMP JUMPDEST PUSH1 0x40 MLOAD DUP1 SWAP2 SUB SWAP1 RETURN JUMPDEST CALLVALUE DUP1 ISZERO PUSH2 0x14E JUMPI PUSH1 0x0 DUP1 REVERT JUMPDEST POP PUSH2 0x169 PUSH1 0x4 DUP1 CALLDATASIZE SUB DUP2 ADD SWAP1 PUSH2 0x164 SWAP2 SWAP1 PUSH2 0x1506 JUMP JUMPDEST PUSH2 0x408 JUMP JUMPDEST PUSH1 0x40 MLOAD PUSH2 0x176 SWAP2 SWAP1 PUSH2 0x1546 JUMP JUMPDEST PUSH1 0x40 MLOAD DUP1 SWAP2 SUB SWAP1 RETURN JUMPDEST PUSH2 0x199 PUSH1 0x4 DUP1 CALLDATASIZE SUB DUP2 ADD SWAP1 PUSH2 0x194 SWAP2 SWAP1 PUSH2 0x16A7 JUMP JUMPDEST PUSH2 0x42D JUMP JUMPDEST STOP JUMPDEST CALLVALUE DUP1 ISZERO PUSH2 0x1A7 JUMPI PUSH1 0x0 DUP1 REVERT JUMPDEST POP PUSH2 0x1C2 PUSH1 0x4 DUP1 CALLDATASIZE SUB DUP2 ADD SWAP1 PUSH2 0x1BD SWAP2 SWAP1 PUSH2 0x173B JUMP JUMPDEST PUSH2 0x63C JUMP JUMPDEST STOP JUMPDEST CALLVALUE DUP1 ISZERO PUSH2 0x1D0 JUMPI PUSH1 0x0 DUP1 REVERT JUMPDEST POP PUSH2 0x1EB PUSH1 0x4 DUP1 CALLDATASIZE SUB DUP2 ADD SWAP1 PUSH2 0x1E6 SWAP2 SWAP1 PUSH2 0x1443 JUMP JUMPDEST PUSH2 0x88C JUMP JUMPDEST PUSH1 0x40 MLOAD PUSH2 0x1F9 SWAP3 SWAP2 SWAP1 PUSH2 0x1809 JUMP JUMPDEST PUSH1 0x40 MLOAD DUP1 SWAP2 SUB SWAP1 RETURN JUMPDEST CALLVALUE DUP1 ISZERO PUSH2 0x20E JUMPI PUSH1 0x0 DUP1 REVERT JUMPDEST POP PUSH2 0x229 PUSH1 0x4 DUP1 CALLDATASIZE SUB DUP2 ADD SWAP1 PUSH2 0x224 SWAP2 SWAP1 PUSH2 0x1443 JUMP JUMPDEST PUSH2 0x9B9 JUMP JUMPDEST STOP JUMPDEST CALLVALUE DUP1 ISZERO PUSH2 0x237 JUMPI PUSH1 0x0 DUP1 REVERT JUMPDEST POP PUSH2 0x240 PUSH2 0xDD3 JUMP JUMPDEST PUSH1 0x40 MLOAD PUSH2 0x24D SWAP2 SWAP1 PUSH2 0x1839 JUMP JUMPDEST PUSH1 0x40 MLOAD DUP1 SWAP2 SUB SWAP1 RETURN JUMPDEST PUSH2 0x270 PUSH1 0x4 DUP1 CALLDATASIZE SUB DUP2 ADD SWAP1 PUSH2 0x26B SWAP2 SWAP1 PUSH2 0x173B JUMP JUMPDEST PUSH2 0xDF7 JUMP JUMPDEST STOP JUMPDEST CALLVALUE DUP1 ISZERO PUSH2 0x27E JUMPI PUSH1 0x0 DUP1 REVERT JUMPDEST POP PUSH2 0x299 PUSH1 0x4 DUP1 CALLDATASIZE SUB DUP2 ADD SWAP1 PUSH2 0x294 SWAP2 SWAP1 PUSH2 0x1443 JUMP JUMPDEST PUSH2 0x1107 JUMP JUMPDEST PUSH1 0x40 MLOAD PUSH2 0x2AF SWAP11 SWAP10 SWAP9 SWAP8 SWAP7 SWAP6 SWAP5 SWAP4 SWAP3 SWAP2 SWAP1 PUSH2 0x1863 JUMP JUMPDEST PUSH1 0x40 MLOAD DUP1 SWAP2 SUB SWAP1 RETURN JUMPDEST CALLVALUE DUP1 ISZERO PUSH2 0x2C4 JUMPI PUSH1 0x0 DUP1 REVERT JUMPDEST POP PUSH2 0x2DF PUSH1 0x4 DUP1 CALLDATASIZE SUB DUP2 ADD SWAP1 PUSH2 0x2DA SWAP2 SWAP1 PUSH2 0x1443 JUMP JUMPDEST PUSH2 0x122A JUMP JUMPDEST PUSH1 0x40 MLOAD PUSH2 0x2F0 SWAP6 SWAP5 SWAP4 SWAP3 SWAP2 SWAP1 PUSH2 0x1906 JUMP JUMPDEST PUSH1 0x40 MLOAD DUP1 SWAP2 SUB SWAP1 RETURN JUMPDEST CALLVALUE DUP1 ISZERO PUSH2 0x305 JUMPI PUSH1 0x0 DUP1 REVERT JUMPDEST POP PUSH2 0x30E PUSH2 0x12F0 JUMP JUMPDEST PUSH1 0x40 MLOAD PUSH2 0x31B SWAP2 SWAP1 PUSH2 0x1546 JUMP JUMPDEST PUSH1 0x40 MLOAD DUP1 SWAP2 SUB SWAP1 RETURN JUMPDEST CALLVALUE DUP1 ISZERO PUSH2 0x330 JUMPI PUSH1 0x0 DUP1 REVERT JUMPDEST POP PUSH2 0x34B PUSH1 0x4 DUP1 CALLDATASIZE SUB DUP2 ADD SWAP1 PUSH2 0x346 SWAP2 SWAP1 PUSH2 0x1506 JUMP JUMPDEST PUSH2 0x12F6 JUMP JUMPDEST PUSH1 0x40 MLOAD PUSH2 0x359 SWAP3 SWAP2 SWAP1 PUSH2 0x147F JUMP JUMPDEST PUSH1 0x40 MLOAD DUP1 SWAP2 SUB SWAP1 RETURN JUMPDEST PUSH1 0x0 DUP1 DUP3 PUSH1 0x1 SLOAD DUP2 GT ISZERO DUP1 ISZERO PUSH2 0x378 JUMPI POP PUSH1 0x0 DUP2 GT JUMPDEST PUSH2 0x3B7 JUMPI PUSH1 0x40 MLOAD PUSH32 0x8C379A000000000000000000000000000000000000000000000000000000000 DUP2 MSTORE PUSH1 0x4 ADD PUSH2 0x3AE SWAP1 PUSH2 0x19B6 JUMP JUMPDEST PUSH1 0x40 MLOAD DUP1 SWAP2 SUB SWAP1 REVERT JUMPDEST PUSH1 0x0 PUSH1 0x2 PUSH1 0x0 DUP7 DUP2 MSTORE PUSH1 0x20 ADD SWAP1 DUP2 MSTORE PUSH1 0x20 ADD PUSH1 0x0 KECCAK256 SWAP1 POP DUP1 PUSH1 0x6 ADD SLOAD DUP2 PUSH1 0x7 ADD SLOAD SWAP4 POP SWAP4 POP POP POP SWAP2 POP SWAP2 JUMP JUMPDEST PUSH1 0x4 PUSH1 0x20 MSTORE DUP2 PUSH1 0x0 MSTORE PUSH1 0x40 PUSH1 0x0 KECCAK256 PUSH1 0x20 MSTORE DUP1 PUSH1 0x0 MSTORE PUSH1 0x40 PUSH1 0x0 KECCAK256 PUSH1 0x0 SWAP2 POP SWAP2 POP POP SLOAD DUP2 JUMP JUMPDEST PUSH1 0x3 PUSH1 0x20 MSTORE DUP2 PUSH1 0x0 MSTORE PUSH1 0x40 PUSH1 0x0 KECCAK256 PUSH1 0x20 MSTORE DUP1 PUSH1 0x0 MSTORE PUSH1 0x40 PUSH1 0x0 KECCAK256 PUSH1 0x0 SWAP2 POP SWAP2 POP POP SLOAD DUP2 JUMP JUMPDEST PUSH1 0x0 DUP3 MLOAD GT PUSH2 0x471 JUMPI PUSH1 0x40 MLOAD PUSH32 0x8C379A000000000000000000000000000000000000000000000000000000000 DUP2 MSTORE PUSH1 0x4 ADD PUSH2 0x468 SWAP1 PUSH2 0x1A22 JUMP JUMPDEST PUSH1 0x40 MLOAD DUP1 SWAP2 SUB SWAP1 REVERT JUMPDEST TIMESTAMP DUP2 GT PUSH2 0x4B3 JUMPI PUSH1 0x40 MLOAD PUSH32 0x8C379A000000000000000000000000000000000000000000000000000000000 DUP2 MSTORE PUSH1 0x4 ADD PUSH2 0x4AA SWAP1 PUSH2 0x1AB4 JUMP JUMPDEST PUSH1 0x40 MLOAD DUP1 SWAP2 SUB SWAP1 REVERT JUMPDEST PUSH6 0x5AF3107A4000 CALLVALUE LT ISZERO PUSH2 0x4FC JUMPI PUSH1 0x40 MLOAD PUSH32 0x8C379A000000000000000000000000000000000000000000000000000000000 DUP2 MSTORE PUSH1 0x4 ADD PUSH2 0x4F3 SWAP1 PUSH2 0x1B46 JUMP JUMPDEST PUSH1 0x40 MLOAD DUP1 SWAP2 SUB SWAP1 REVERT JUMPDEST PUSH1 0x1 PUSH1 0x0 DUP2 SLOAD DUP1 SWAP3 SWAP2 SWAP1 PUSH2 0x50F SWAP1 PUSH2 0x1B95 JUMP JUMPDEST SWAP2 SWAP1 POP SSTORE POP PUSH1 0x0 PUSH1 0x2 PUSH1 0x0 PUSH1 0x1 SLOAD DUP2 MSTORE PUSH1 0x20 ADD SWAP1 DUP2 MSTORE PUSH1 0x20 ADD PUSH1 0x0 KECCAK256 SWAP1 POP PUSH1 0x1 SLOAD DUP2 PUSH1 0x0 ADD DUP2 SWAP1 SSTORE POP CALLER DUP2 PUSH1 0x1 ADD PUSH1 0x0 PUSH2 0x100 EXP DUP2 SLOAD DUP2 PUSH20 0xFFFFFFFFFFFFFFFFFFFFFFFFFFFFFFFFFFFFFFFF MUL NOT AND SWAP1 DUP4 PUSH20 0xFFFFFFFFFFFFFFFFFFFFFFFFFFFFFFFFFFFFFFFF AND MUL OR SWAP1 SSTORE POP DUP3 DUP2 PUSH1 0x2 ADD SWAP1 DUP2 PUSH2 0x58C SWAP2 SWAP1 PUSH2 0x1DE9 JUMP JUMPDEST POP DUP2 DUP2 PUSH1 0x3 ADD DUP2 SWAP1 SSTORE POP CALLVALUE DUP2 PUSH1 0x4 ADD DUP2 SWAP1 SSTORE POP PUSH1 0x2 CALLVALUE PUSH2 0x5AC SWAP2 SWAP1 PUSH2 0x1EEA JUMP JUMPDEST DUP2 PUSH1 0x6 ADD DUP2 SWAP1 SSTORE POP PUSH1 0x2 CALLVALUE PUSH2 0x5C1 SWAP2 SWAP1 PUSH2 0x1EEA JUMP JUMPDEST DUP2 PUSH1 0x7 ADD DUP2 SWAP1 SSTORE POP PUSH1 0x1 DUP2 PUSH1 0x8 ADD PUSH1 0x0 PUSH2 0x100 EXP DUP2 SLOAD DUP2 PUSH1 0xFF MUL NOT AND SWAP1 DUP4 ISZERO ISZERO MUL OR SWAP1 SSTORE POP CALLER PUSH20 0xFFFFFFFFFFFFFFFFFFFFFFFFFFFFFFFFFFFFFFFF AND PUSH1 0x1 SLOAD PUSH32 0x557E20BE357A3FF3FC08CF2B8E6986333057886A281D0409A7E751C3FD700EC0 DUP5 PUSH1 0x40 MLOAD PUSH2 0x62F SWAP2 SWAP1 PUSH2 0x1546 JUMP JUMPDEST PUSH1 0x40 MLOAD DUP1 SWAP2 SUB SWAP1 LOG3 POP POP POP JUMP JUMPDEST DUP2 PUSH1 0x2 PUSH1 0x0 DUP3 DUP2 MSTORE PUSH1 0x20 ADD SWAP1 DUP2 MSTORE PUSH1 0x20 ADD PUSH1 0x0 KECCAK256 PUSH1 0x1 ADD PUSH1 0x0 SWAP1 SLOAD SWAP1 PUSH2 0x100 EXP SWAP1 DIV PUSH20 0xFFFFFFFFFFFFFFFFFFFFFFFFFFFFFFFFFFFFFFFF AND PUSH20 0xFFFFFFFFFFFFFFFFFFFFFFFFFFFFFFFFFFFFFFFF AND CALLER PUSH20 0xFFFFFFFFFFFFFFFFFFFFFFFFFFFFFFFFFFFFFFFF AND EQ PUSH2 0x6E1 JUMPI PUSH1 0x40 MLOAD PUSH32 0x8C379A000000000000000000000000000000000000000000000000000000000 DUP2 MSTORE PUSH1 0x4 ADD PUSH2 0x6D8 SWAP1 PUSH2 0x1F8D JUMP JUMPDEST PUSH1 0x40 MLOAD DUP1 SWAP2 SUB SWAP1 REVERT JUMPDEST DUP3 PUSH1 0x1 SLOAD DUP2 GT ISZERO DUP1 ISZERO PUSH2 0x6F4 JUMPI POP PUSH1 0x0 DUP2 GT JUMPDEST PUSH2 0x733 JUMPI PUSH1 0x40 MLOAD PUSH32 0x8C379A000000000000000000000000000000000000000000000000000000000 DUP2 MSTORE PUSH1 0x4 ADD PUSH2 0x72A SWAP1 PUSH2 0x19B6 JUMP JUMPDEST PUSH1 0x40 MLOAD DUP1 SWAP2 SUB SWAP1 REVERT JUMPDEST DUP4 PUSH1 0x2 PUSH1 0x0 DUP3 DUP2 MSTORE PUSH1 0x20 ADD SWAP1 DUP2 MSTORE PUSH1 0x20 ADD PUSH1 0x0 KECCAK256 PUSH1 0x5 ADD PUSH1 0x0 SWAP1 SLOAD SWAP1 PUSH2 0x100 EXP SWAP1 DIV PUSH1 0xFF AND ISZERO PUSH2 0x798 JUMPI PUSH1 0x40 MLOAD PUSH32 0x8C379A000000000000000000000000000000000000000000000000000000000 DUP2 MSTORE PUSH1 0x4 ADD PUSH2 0x78F SWAP1 PUSH2 0x1FF9 JUMP JUMPDEST PUSH1 0x40 MLOAD DUP1 SWAP2 SUB SWAP1 REVERT JUMPDEST PUSH1 0x0 PUSH1 0x2 PUSH1 0x0 DUP8 DUP2 MSTORE PUSH1 0x20 ADD SWAP1 DUP2 MSTORE PUSH1 0x20 ADD PUSH1 0x0 KECCAK256 SWAP1 POP DUP1 PUSH1 0x3 ADD SLOAD TIMESTAMP LT ISZERO PUSH2 0x7F6 JUMPI PUSH1 0x40 MLOAD PUSH32 0x8C379A000000000000000000000000000000000000000000000000000000000 DUP2 MSTORE PUSH1 0x4 ADD PUSH2 0x7ED SWAP1 PUSH2 0x2065 JUMP JUMPDEST PUSH1 0x40 MLOAD DUP1 SWAP2 SUB SWAP1 REVERT JUMPDEST PUSH1 0x1 DUP2 PUSH1 0x5 ADD PUSH1 0x0 PUSH2 0x100 EXP DUP2 SLOAD DUP2 PUSH1 0xFF MUL NOT AND SWAP1 DUP4 ISZERO ISZERO MUL OR SWAP1 SSTORE POP DUP5 DUP2 PUSH1 0x5 ADD PUSH1 0x1 PUSH2 0x100 EXP DUP2 SLOAD DUP2 PUSH1 0xFF MUL NOT AND SWAP1 DUP4 ISZERO ISZERO MUL OR SWAP1 SSTORE POP PUSH1 0x0 DUP2 PUSH1 0x8 ADD PUSH1 0x0 PUSH2 0x100 EXP DUP2 SLOAD DUP2 PUSH1 0xFF MUL NOT AND SWAP1 DUP4 ISZERO ISZERO MUL OR SWAP1 SSTORE POP DUP6 PUSH32 0x4927FE38919783250023D27E65A3E56B6B5C3E49364E51674A41EF08D62460D9 DUP7 PUSH1 0x40 MLOAD PUSH2 0x87C SWAP2 SWAP1 PUSH2 0x2085 JUMP JUMPDEST PUSH1 0x40 MLOAD DUP1 SWAP2 SUB SWAP1 LOG2 POP POP POP POP POP POP JUMP JUMPDEST PUSH1 0x0 PUSH1 0x60 DUP3 PUSH1 0x1 SLOAD DUP2 GT ISZERO DUP1 ISZERO PUSH2 0x8A3 JUMPI POP PUSH1 0x0 DUP2 GT JUMPDEST PUSH2 0x8E2 JUMPI PUSH1 0x40 MLOAD PUSH32 0x8C379A000000000000000000000000000000000000000000000000000000000 DUP2 MSTORE PUSH1 0x4 ADD PUSH2 0x8D9 SWAP1 PUSH2 0x19B6 JUMP JUMPDEST PUSH1 0x40 MLOAD DUP1 SWAP2 SUB SWAP1 REVERT JUMPDEST PUSH1 0x0 PUSH1 0x2 PUSH1 0x0 DUP7 DUP2 MSTORE PUSH1 0x20 ADD SWAP1 DUP2 MSTORE PUSH1 0x20 ADD PUSH1 0x0 KECCAK256 SWAP1 POP DUP1 PUSH1 0x1 ADD PUSH1 0x0 SWAP1 SLOAD SWAP1 PUSH2 0x100 EXP SWAP1 DIV PUSH20 0xFFFFFFFFFFFFFFFFFFFFFFFFFFFFFFFFFFFFFFFF AND DUP2 PUSH1 0x2 ADD DUP1 DUP1 SLOAD PUSH2 0x92E SWAP1 PUSH2 0x1C0C JUMP JUMPDEST DUP1 PUSH1 0x1F ADD PUSH1 0x20 DUP1 SWAP2 DIV MUL PUSH1 0x20 ADD PUSH1 0x40 MLOAD SWAP1 DUP2 ADD PUSH1 0x40 MSTORE DUP1 SWAP3 SWAP2 SWAP1 DUP2 DUP2 MSTORE PUSH1 0x20 ADD DUP3 DUP1 SLOAD PUSH2 0x95A SWAP1 PUSH2 0x1C0C JUMP JUMPDEST DUP1 ISZERO PUSH2 0x9A7 JUMPI DUP1 PUSH1 0x1F LT PUSH2 0x97C JUMPI PUSH2 0x100 DUP1 DUP4 SLOAD DIV MUL DUP4 MSTORE SWAP2 PUSH1 0x20 ADD SWAP2 PUSH2 0x9A7 JUMP JUMPDEST DUP3 ADD SWAP2 SWAP1 PUSH1 0x0 MSTORE PUSH1 0x20 PUSH1 0x0 KECCAK256 SWAP1 JUMPDEST DUP2 SLOAD DUP2 MSTORE SWAP1 PUSH1 0x1 ADD SWAP1 PUSH1 0x20 ADD DUP1 DUP4 GT PUSH2 0x98A JUMPI DUP3 SWAP1 SUB PUSH1 0x1F AND DUP3 ADD SWAP2 JUMPDEST POP POP POP POP POP SWAP1 POP SWAP4 POP SWAP4 POP POP POP SWAP2 POP SWAP2 JUMP JUMPDEST DUP1 PUSH1 0x1 SLOAD DUP2 GT ISZERO DUP1 ISZERO PUSH2 0x9CC JUMPI POP PUSH1 0x0 DUP2 GT JUMPDEST PUSH2 0xA0B JUMPI PUSH1 0x40 MLOAD PUSH32 0x8C379A000000000000000000000000000000000000000000000000000000000 DUP2 MSTORE PUSH1 0x4 ADD PUSH2 0xA02 SWAP1 PUSH2 0x19B6 JUMP JUMPDEST PUSH1 0x40 MLOAD DUP1 SWAP2 SUB SWAP1 REVERT JUMPDEST PUSH1 0x0 PUSH1 0x2 PUSH1 0x0 DUP5 DUP2 MSTORE PUSH1 0x20 ADD SWAP1 DUP2 MSTORE PUSH1 0x20 ADD PUSH1 0x0 KECCAK256 SWAP1 POP DUP1 PUSH1 0x5 ADD PUSH1 0x0 SWAP1 SLOAD SWAP1 PUSH2 0x100 EXP SWAP1 DIV PUSH1 0xFF AND PUSH2 0xA73 JUMPI PUSH1 0x40 MLOAD PUSH32 0x8C379A000000000000000000000000000000000000000000000000000000000 DUP2 MSTORE PUSH1 0x4 ADD PUSH2 0xA6A SWAP1 PUSH2 0x20EC JUMP JUMPDEST PUSH1 0x40 MLOAD DUP1 SWAP2 SUB SWAP1 REVERT JUMPDEST PUSH1 0x0 DUP2 PUSH1 0x5 ADD PUSH1 0x1 SWAP1 SLOAD SWAP1 PUSH2 0x100 EXP SWAP1 DIV PUSH1 0xFF AND PUSH2 0xAE1 JUMPI PUSH1 0x4 PUSH1 0x0 DUP6 DUP2 MSTORE PUSH1 0x20 ADD SWAP1 DUP2 MSTORE PUSH1 0x20 ADD PUSH1 0x0 KECCAK256 PUSH1 0x0 CALLER PUSH20 0xFFFFFFFFFFFFFFFFFFFFFFFFFFFFFFFFFFFFFFFF AND PUSH20 0xFFFFFFFFFFFFFFFFFFFFFFFFFFFFFFFFFFFFFFFF AND DUP2 MSTORE PUSH1 0x20 ADD SWAP1 DUP2 MSTORE PUSH1 0x20 ADD PUSH1 0x0 KECCAK256 SLOAD PUSH2 0xB33 JUMP JUMPDEST PUSH1 0x3 PUSH1 0x0 DUP6 DUP2 MSTORE PUSH1 0x20 ADD SWAP1 DUP2 MSTORE PUSH1 0x20 ADD PUSH1 0x0 KECCAK256 PUSH1 0x0 CALLER PUSH20 0xFFFFFFFFFFFFFFFFFFFFFFFFFFFFFFFFFFFFFFFF AND PUSH20 0xFFFFFFFFFFFFFFFFFFFFFFFFFFFFFFFFFFFFFFFF AND DUP2 MSTORE PUSH1 0x20 ADD SWAP1 DUP2 MSTORE PUSH1 0x20 ADD PUSH1 0x0 KECCAK256 SLOAD JUMPDEST SWAP1 POP PUSH1 0x0 DUP2 GT PUSH2 0xB78 JUMPI PUSH1 0x40 MLOAD PUSH32 0x8C379A000000000000000000000000000000000000000000000000000000000 DUP2 MSTORE PUSH1 0x4 ADD PUSH2 0xB6F SWAP1 PUSH2 0x2158 JUMP JUMPDEST PUSH1 0x40 MLOAD DUP1 SWAP2 SUB SWAP1 REVERT JUMPDEST PUSH1 0x0 DUP3 PUSH1 0x5 ADD PUSH1 0x1 SWAP1 SLOAD SWAP1 PUSH2 0x100 EXP SWAP1 DIV PUSH1 0xFF AND PUSH2 0xB9A JUMPI DUP3 PUSH1 0x7 ADD SLOAD PUSH2 0xBA0 JUMP JUMPDEST DUP3 PUSH1 0x6 ADD SLOAD JUMPDEST SWAP1 POP PUSH1 0x0 DUP4 PUSH1 0x7 ADD SLOAD DUP5 PUSH1 0x6 ADD SLOAD PUSH2 0xBB8 SWAP2 SWAP1 PUSH2 0x2178 JUMP JUMPDEST SWAP1 POP PUSH1 0x0 DUP3 DUP3 DUP6 PUSH2 0xBC9 SWAP2 SWAP1 PUSH2 0x21AC JUMP JUMPDEST PUSH2 0xBD3 SWAP2 SWAP1 PUSH2 0x1EEA JUMP JUMPDEST SWAP1 POP PUSH1 0x0 PUSH1 0x64 PUSH1 0x2 DUP4 PUSH2 0xBE6 SWAP2 SWAP1 PUSH2 0x21AC JUMP JUMPDEST PUSH2 0xBF0 SWAP2 SWAP1 PUSH2 0x1EEA JUMP JUMPDEST SWAP1 POP PUSH1 0x0 DUP2 DUP4 PUSH2 0xC00 SWAP2 SWAP1 PUSH2 0x21EE JUMP JUMPDEST SWAP1 POP DUP7 PUSH1 0x5 ADD PUSH1 0x1 SWAP1 SLOAD SWAP1 PUSH2 0x100 EXP SWAP1 DIV PUSH1 0xFF AND ISZERO PUSH2 0xC74 JUMPI PUSH1 0x0 PUSH1 0x3 PUSH1 0x0 DUP12 DUP2 MSTORE PUSH1 0x20 ADD SWAP1 DUP2 MSTORE PUSH1 0x20 ADD PUSH1 0x0 KECCAK256 PUSH1 0x0 CALLER PUSH20 0xFFFFFFFFFFFFFFFFFFFFFFFFFFFFFFFFFFFFFFFF AND PUSH20 0xFFFFFFFFFFFFFFFFFFFFFFFFFFFFFFFFFFFFFFFF AND DUP2 MSTORE PUSH1 0x20 ADD SWAP1 DUP2 MSTORE PUSH1 0x20 ADD PUSH1 0x0 KECCAK256 DUP2 SWAP1 SSTORE POP PUSH2 0xCCB JUMP JUMPDEST PUSH1 0x0 PUSH1 0x4 PUSH1 0x0 DUP12 DUP2 MSTORE PUSH1 0x20 ADD SWAP1 DUP2 MSTORE PUSH1 0x20 ADD PUSH1 0x0 KECCAK256 PUSH1 0x0 CALLER PUSH20 0xFFFFFFFFFFFFFFFFFFFFFFFFFFFFFFFFFFFFFFFF AND PUSH20 0xFFFFFFFFFFFFFFFFFFFFFFFFFFFFFFFFFFFFFFFF AND DUP2 MSTORE PUSH1 0x20 ADD SWAP1 DUP2 MSTORE PUSH1 0x20 ADD PUSH1 0x0 KECCAK256 DUP2 SWAP1 SSTORE POP JUMPDEST PUSH1 0x0 DUP1 SLOAD SWAP1 PUSH2 0x100 EXP SWAP1 DIV PUSH20 0xFFFFFFFFFFFFFFFFFFFFFFFFFFFFFFFFFFFFFFFF AND PUSH20 0xFFFFFFFFFFFFFFFFFFFFFFFFFFFFFFFFFFFFFFFF AND PUSH2 0x8FC DUP4 SWAP1 DUP2 ISZERO MUL SWAP1 PUSH1 0x40 MLOAD PUSH1 0x0 PUSH1 0x40 MLOAD DUP1 DUP4 SUB DUP2 DUP6 DUP9 DUP9 CALL SWAP4 POP POP POP POP ISZERO DUP1 ISZERO PUSH2 0xD31 JUMPI RETURNDATASIZE PUSH1 0x0 DUP1 RETURNDATACOPY RETURNDATASIZE PUSH1 0x0 REVERT JUMPDEST POP CALLER PUSH20 0xFFFFFFFFFFFFFFFFFFFFFFFFFFFFFFFFFFFFFFFF AND PUSH2 0x8FC DUP3 SWAP1 DUP2 ISZERO MUL SWAP1 PUSH1 0x40 MLOAD PUSH1 0x0 PUSH1 0x40 MLOAD DUP1 DUP4 SUB DUP2 DUP6 DUP9 DUP9 CALL SWAP4 POP POP POP POP ISZERO DUP1 ISZERO PUSH2 0xD78 JUMPI RETURNDATASIZE PUSH1 0x0 DUP1 RETURNDATACOPY RETURNDATASIZE PUSH1 0x0 REVERT JUMPDEST POP CALLER PUSH20 0xFFFFFFFFFFFFFFFFFFFFFFFFFFFFFFFFFFFFFFFF AND DUP10 PUSH32 0xE97CEE5A4C0549D3FDC81E322B718DDF0AEB3418EC87DCE4F9A7FB28D117C312 DUP4 PUSH1 0x40 MLOAD PUSH2 0xDC0 SWAP2 SWAP1 PUSH2 0x1546 JUMP JUMPDEST PUSH1 0x40 MLOAD DUP1 SWAP2 SUB SWAP1 LOG3 POP POP POP POP POP POP POP POP POP JUMP JUMPDEST PUSH1 0x0 DUP1 SLOAD SWAP1 PUSH2 0x100 EXP SWAP1 DIV PUSH20 0xFFFFFFFFFFFFFFFFFFFFFFFFFFFFFFFFFFFFFFFF AND DUP2 JUMP JUMPDEST DUP2 PUSH1 0x1 SLOAD DUP2 GT ISZERO DUP1 ISZERO PUSH2 0xE0A JUMPI POP PUSH1 0x0 DUP2 GT JUMPDEST PUSH2 0xE49 JUMPI PUSH1 0x40 MLOAD PUSH32 0x8C379A000000000000000000000000000000000000000000000000000000000 DUP2 MSTORE PUSH1 0x4 ADD PUSH2 0xE40 SWAP1 PUSH2 0x19B6 JUMP JUMPDEST PUSH1 0x40 MLOAD DUP1 SWAP2 SUB SWAP1 REVERT JUMPDEST DUP3 PUSH1 0x2 PUSH1 0x0 DUP3 DUP2 MSTORE PUSH1 0x20 ADD SWAP1 DUP2 MSTORE PUSH1 0x20 ADD PUSH1 0x0 KECCAK256 PUSH1 0x5 ADD PUSH1 0x0 SWAP1 SLOAD SWAP1 PUSH2 0x100 EXP SWAP1 DIV PUSH1 0xFF AND ISZERO PUSH2 0xEAE JUMPI PUSH1 0x40 MLOAD PUSH32 0x8C379A000000000000000000000000000000000000000000000000000000000 DUP2 MSTORE PUSH1 0x4 ADD PUSH2 0xEA5 SWAP1 PUSH2 0x1FF9 JUMP JUMPDEST PUSH1 0x40 MLOAD DUP1 SWAP2 SUB SWAP1 REVERT JUMPDEST PUSH1 0x0 PUSH1 0x2 PUSH1 0x0 DUP7 DUP2 MSTORE PUSH1 0x20 ADD SWAP1 DUP2 MSTORE PUSH1 0x20 ADD PUSH1 0x0 KECCAK256 SWAP1 POP DUP1 PUSH1 0x8 ADD PUSH1 0x0 SWAP1 SLOAD SWAP1 PUSH2 0x100 EXP SWAP1 DIV PUSH1 0xFF AND PUSH2 0xF16 JUMPI PUSH1 0x40 MLOAD PUSH32 0x8C379A000000000000000000000000000000000000000000000000000000000 DUP2 MSTORE PUSH1 0x4 ADD PUSH2 0xF0D SWAP1 PUSH2 0x226E JUMP JUMPDEST PUSH1 0x40 MLOAD DUP1 SWAP2 SUB SWAP1 REVERT JUMPDEST DUP1 PUSH1 0x3 ADD SLOAD TIMESTAMP LT PUSH2 0xF5C JUMPI PUSH1 0x40 MLOAD PUSH32 0x8C379A000000000000000000000000000000000000000000000000000000000 DUP2 MSTORE PUSH1 0x4 ADD PUSH2 0xF53 SWAP1 PUSH2 0x22DA JUMP JUMPDEST PUSH1 0x40 MLOAD DUP1 SWAP2 SUB SWAP1 REVERT JUMPDEST PUSH1 0x0 CALLVALUE GT PUSH2 0xF9F JUMPI PUSH1 0x40 MLOAD PUSH32 0x8C379A000000000000000000000000000000000000000000000000000000000 DUP2 MSTORE PUSH1 0x4 ADD PUSH2 0xF96 SWAP1 PUSH2 0x236C JUMP JUMPDEST PUSH1 0x40 MLOAD DUP1 SWAP2 SUB SWAP1 REVERT JUMPDEST DUP4 ISZERO PUSH2 0x102C JUMPI CALLVALUE DUP2 PUSH1 0x6 ADD PUSH1 0x0 DUP3 DUP3 SLOAD PUSH2 0xFB9 SWAP2 SWAP1 PUSH2 0x2178 JUMP JUMPDEST SWAP3 POP POP DUP2 SWAP1 SSTORE POP CALLVALUE PUSH1 0x3 PUSH1 0x0 DUP8 DUP2 MSTORE PUSH1 0x20 ADD SWAP1 DUP2 MSTORE PUSH1 0x20 ADD PUSH1 0x0 KECCAK256 PUSH1 0x0 CALLER PUSH20 0xFFFFFFFFFFFFFFFFFFFFFFFFFFFFFFFFFFFFFFFF AND PUSH20 0xFFFFFFFFFFFFFFFFFFFFFFFFFFFFFFFFFFFFFFFF AND DUP2 MSTORE PUSH1 0x20 ADD SWAP1 DUP2 MSTORE PUSH1 0x20 ADD PUSH1 0x0 KECCAK256 PUSH1 0x0 DUP3 DUP3 SLOAD PUSH2 0x1020 SWAP2 SWAP1 PUSH2 0x2178 JUMP JUMPDEST SWAP3 POP POP DUP2 SWAP1 SSTORE POP PUSH2 0x10AF JUMP JUMPDEST CALLVALUE DUP2 PUSH1 0x7 ADD PUSH1 0x0 DUP3 DUP3 SLOAD PUSH2 0x1040 SWAP2 SWAP1 PUSH2 0x2178 JUMP JUMPDEST SWAP3 POP POP DUP2 SWAP1 SSTORE POP CALLVALUE PUSH1 0x4 PUSH1 0x0 DUP8 DUP2 MSTORE PUSH1 0x20 ADD SWAP1 DUP2 MSTORE PUSH1 0x20 ADD PUSH1 0x0 KECCAK256 PUSH1 0x0 CALLER PUSH20 0xFFFFFFFFFFFFFFFFFFFFFFFFFFFFFFFFFFFFFFFF AND PUSH20 0xFFFFFFFFFFFFFFFFFFFFFFFFFFFFFFFFFFFFFFFF AND DUP2 MSTORE PUSH1 0x20 ADD SWAP1 DUP2 MSTORE PUSH1 0x20 ADD PUSH1 0x0 KECCAK256 PUSH1 0x0 DUP3 DUP3 SLOAD PUSH2 0x10A7 SWAP2 SWAP1 PUSH2 0x2178 JUMP JUMPDEST SWAP3 POP POP DUP2 SWAP1 SSTORE POP JUMPDEST CALLER PUSH20 0xFFFFFFFFFFFFFFFFFFFFFFFFFFFFFFFFFFFFFFFF AND DUP6 PUSH32 0x4AF71B021E799C62C158BD54636CA8DA2FA26115A21A2DC6EFE486EC104FD15F DUP7 CALLVALUE PUSH1 0x40 MLOAD PUSH2 0x10F8 SWAP3 SWAP2 SWAP1 PUSH2 0x238C JUMP JUMPDEST PUSH1 0x40 MLOAD DUP1 SWAP2 SUB SWAP1 LOG3 POP POP POP POP POP JUMP JUMPDEST PUSH1 0x2 PUSH1 0x20 MSTORE DUP1 PUSH1 0x0 MSTORE PUSH1 0x40 PUSH1 0x0 KECCAK256 PUSH1 0x0 SWAP2 POP SWAP1 POP DUP1 PUSH1 0x0 ADD SLOAD SWAP1 DUP1 PUSH1 0x1 ADD PUSH1 0x0 SWAP1 SLOAD SWAP1 PUSH2 0x100 EXP SWAP1 DIV PUSH20 0xFFFFFFFFFFFFFFFFFFFFFFFFFFFFFFFFFFFFFFFF AND SWAP1 DUP1 PUSH1 0x2 ADD DUP1 SLOAD PUSH2 0x1156 SWAP1 PUSH2 0x1C0C JUMP JUMPDEST DUP1 PUSH1 0x1F ADD PUSH1 0x20 DUP1 SWAP2 DIV MUL PUSH1 0x20 ADD PUSH1 0x40 MLOAD SWAP1 DUP2 ADD PUSH1 0x40 MSTORE DUP1 SWAP3 SWAP2 SWAP1 DUP2 DUP2 MSTORE PUSH1 0x20 ADD DUP3 DUP1 SLOAD PUSH2 0x1182 SWAP1 PUSH2 0x1C0C JUMP JUMPDEST DUP1 ISZERO PUSH2 0x11CF JUMPI DUP1 PUSH1 0x1F LT PUSH2 0x11A4 JUMPI PUSH2 0x100 DUP1 DUP4 SLOAD DIV MUL DUP4 MSTORE SWAP2 PUSH1 0x20 ADD SWAP2 PUSH2 0x11CF JUMP JUMPDEST DUP3 ADD SWAP2 SWAP1 PUSH1 0x0 MSTORE PUSH1 0x20 PUSH1 0x0 KECCAK256 SWAP1 JUMPDEST DUP2 SLOAD DUP2 MSTORE SWAP1 PUSH1 0x1 ADD SWAP1 PUSH1 0x20 ADD DUP1 DUP4 GT PUSH2 0x11B2 JUMPI DUP3 SWAP1 SUB PUSH1 0x1F AND DUP3 ADD SWAP2 JUMPDEST POP POP POP POP POP SWAP1 DUP1 PUSH1 0x3 ADD SLOAD SWAP1 DUP1 PUSH1 0x4 ADD SLOAD SWAP1 DUP1 PUSH1 0x5 ADD PUSH1 0x0 SWAP1 SLOAD SWAP1 PUSH2 0x100 EXP SWAP1 DIV PUSH1 0xFF AND SWAP1 DUP1 PUSH1 0x5 ADD PUSH1 0x1 SWAP1 SLOAD SWAP1 PUSH2 0x100 EXP SWAP1 DIV PUSH1 0xFF AND SWAP1 DUP1 PUSH1 0x6 ADD SLOAD SWAP1 DUP1 PUSH1 0x7 ADD SLOAD SWAP1 DUP1 PUSH1 0x8 ADD PUSH1 0x0 SWAP1 SLOAD SWAP1 PUSH2 0x100 EXP SWAP1 DIV PUSH1 0xFF AND SWAP1 POP DUP11 JUMP JUMPDEST PUSH1 0x0 DUP1 PUSH1 0x0 DUP1 PUSH1 0x0 DUP6 PUSH1 0x1 SLOAD DUP2 GT ISZERO DUP1 ISZERO PUSH2 0x1245 JUMPI POP PUSH1 0x0 DUP2 GT JUMPDEST PUSH2 0x1284 JUMPI PUSH1 0x40 MLOAD PUSH32 0x8C379A000000000000000000000000000000000000000000000000000000000 DUP2 MSTORE PUSH1 0x4 ADD PUSH2 0x127B SWAP1 PUSH2 0x19B6 JUMP JUMPDEST PUSH1 0x40 MLOAD DUP1 SWAP2 SUB SWAP1 REVERT JUMPDEST PUSH1 0x0 PUSH1 0x2 PUSH1 0x0 DUP10 DUP2 MSTORE PUSH1 0x20 ADD SWAP1 DUP2 MSTORE PUSH1 0x20 ADD PUSH1 0x0 KECCAK256 SWAP1 POP DUP1 PUSH1 0x3 ADD SLOAD DUP2 PUSH1 0x4 ADD SLOAD DUP3 PUSH1 0x5 ADD PUSH1 0x0 SWAP1 SLOAD SWAP1 PUSH2 0x100 EXP SWAP1 DIV PUSH1 0xFF AND DUP4 PUSH1 0x5 ADD PUSH1 0x1 SWAP1 SLOAD SWAP1 PUSH2 0x100 EXP SWAP1 DIV PUSH1 0xFF AND DUP5 PUSH1 0x8 ADD PUSH1 0x0 SWAP1 SLOAD SWAP1 PUSH2 0x100 EXP SWAP1 DIV PUSH1 0xFF AND SWAP7 POP SWAP7 POP SWAP7 POP SWAP7 POP SWAP7 POP POP POP SWAP2 SWAP4 SWAP6 SWAP1 SWAP3 SWAP5 POP JUMP JUMPDEST PUSH1 0x1 SLOAD DUP2 JUMP JUMPDEST PUSH1 0x0 DUP1 DUP4 PUSH1 0x1 SLOAD DUP2 GT ISZERO DUP1 ISZERO PUSH2 0x130C JUMPI POP PUSH1 0x0 DUP2 GT JUMPDEST PUSH2 0x134B JUMPI PUSH1 0x40 MLOAD PUSH32 0x8C379A000000000000000000000000000000000000000000000000000000000 DUP2 MSTORE PUSH1 0x4 ADD PUSH2 0x1342 SWAP1 PUSH2 0x19B6 JUMP JUMPDEST PUSH1 0x40 MLOAD DUP1 SWAP2 SUB SWAP1 REVERT JUMPDEST PUSH1 0x3 PUSH1 0x0 DUP7 DUP2 MSTORE PUSH1 0x20 ADD SWAP1 DUP2 MSTORE PUSH1 0x20 ADD PUSH1 0x0 KECCAK256 PUSH1 0x0 DUP6 PUSH20 0xFFFFFFFFFFFFFFFFFFFFFFFFFFFFFFFFFFFFFFFF AND PUSH20 0xFFFFFFFFFFFFFFFFFFFFFFFFFFFFFFFFFFFFFFFF AND DUP2 MSTORE PUSH1 0x20 ADD SWAP1 DUP2 MSTORE PUSH1 0x20 ADD PUSH1 0x0 KECCAK256 SLOAD PUSH1 0x4 PUSH1 0x0 DUP8 DUP2 MSTORE PUSH1 0x20 ADD SWAP1 DUP2 MSTORE PUSH1 0x20 ADD PUSH1 0x0 KECCAK256 PUSH1 0x0 DUP7 PUSH20 0xFFFFFFFFFFFFFFFFFFFFFFFFFFFFFFFFFFFFFFFF AND PUSH20 0xFFFFFFFFFFFFFFFFFFFFFFFFFFFFFFFFFFFFFFFF AND DUP2 MSTORE PUSH1 0x20 ADD SWAP1 DUP2 MSTORE PUSH1 0x20 ADD PUSH1 0x0 KECCAK256 SLOAD SWAP3 POP SWAP3 POP POP SWAP3 POP SWAP3 SWAP1 POP JUMP JUMPDEST PUSH1 0x0 PUSH1 0x40 MLOAD SWAP1 POP SWAP1 JUMP JUMPDEST PUSH1 0x0 DUP1 REVERT JUMPDEST PUSH1 0x0 DUP1 REVERT JUMPDEST PUSH1 0x0 DUP2 SWAP1 POP SWAP2 SWAP1 POP JUMP JUMPDEST PUSH2 0x1420 DUP2 PUSH2 0x140D JUMP JUMPDEST DUP2 EQ PUSH2 0x142B JUMPI PUSH1 0x0 DUP1 REVERT JUMPDEST POP JUMP JUMPDEST PUSH1 0x0 DUP2 CALLDATALOAD SWAP1 POP PUSH2 0x143D DUP2 PUSH2 0x1417 JUMP JUMPDEST SWAP3 SWAP2 POP POP JUMP JUMPDEST PUSH1 0x0 PUSH1 0x20 DUP3 DUP5 SUB SLT ISZERO PUSH2 0x1459 JUMPI PUSH2 0x1458 PUSH2 0x1403 JUMP JUMPDEST JUMPDEST PUSH1 0x0 PUSH2 0x1467 DUP5 DUP3 DUP6 ADD PUSH2 0x142E JUMP JUMPDEST SWAP2 POP POP SWAP3 SWAP2 POP POP JUMP JUMPDEST PUSH2 0x1479 DUP2 PUSH2 0x140D JUMP JUMPDEST DUP3 MSTORE POP POP JUMP JUMPDEST PUSH1 0x0 PUSH1 0x40 DUP3 ADD SWAP1 POP PUSH2 0x1494 PUSH1 0x0 DUP4 ADD DUP6 PUSH2 0x1470 JUMP JUMPDEST PUSH2 0x14A1 PUSH1 0x20 DUP4 ADD DUP5 PUSH2 0x1470 JUMP JUMPDEST SWAP4 SWAP3 POP POP POP JUMP JUMPDEST PUSH1 0x0 PUSH20 0xFFFFFFFFFFFFFFFFFFFFFFFFFFFFFFFFFFFFFFFF DUP3 AND SWAP1 POP SWAP2 SWAP1 POP JUMP JUMPDEST PUSH1 0x0 PUSH2 0x14D3 DUP3 PUSH2 0x14A8 JUMP JUMPDEST SWAP1 POP SWAP2 SWAP1 POP JUMP JUMPDEST PUSH2 0x14E3 DUP2 PUSH2 0x14C8 JUMP JUMPDEST DUP2 EQ PUSH2 0x14EE JUMPI PUSH1 0x0 DUP1 REVERT JUMPDEST POP JUMP JUMPDEST PUSH1 0x0 DUP2 CALLDATALOAD SWAP1 POP PUSH2 0x1500 DUP2 PUSH2 0x14DA JUMP JUMPDEST SWAP3 SWAP2 POP POP JUMP JUMPDEST PUSH1 0x0 DUP1 PUSH1 0x40 DUP4 DUP6 SUB SLT ISZERO PUSH2 0x151D JUMPI PUSH2 0x151C PUSH2 0x1403 JUMP JUMPDEST JUMPDEST PUSH1 0x0 PUSH2 0x152B DUP6 DUP3 DUP7 ADD PUSH2 0x142E JUMP JUMPDEST SWAP3 POP POP PUSH1 0x20 PUSH2 0x153C DUP6 DUP3 DUP7 ADD PUSH2 0x14F1 JUMP JUMPDEST SWAP2 POP POP SWAP3 POP SWAP3 SWAP1 POP JUMP JUMPDEST PUSH1 0x0 PUSH1 0x20 DUP3 ADD SWAP1 POP PUSH2 0x155B PUSH1 0x0 DUP4 ADD DUP5 PUSH2 0x1470 JUMP JUMPDEST SWAP3 SWAP2 POP POP JUMP JUMPDEST PUSH1 0x0 DUP1 REVERT JUMPDEST PUSH1 0x0 DUP1 REVERT JUMPDEST PUSH1 0x0 PUSH1 0x1F NOT PUSH1 0x1F DUP4 ADD AND SWAP1 POP SWAP2 SWAP1 POP JUMP JUMPDEST PUSH32 0x4E487B7100000000000000000000000000000000000000000000000000000000 PUSH1 0x0 MSTORE PUSH1 0x41 PUSH1 0x4 MSTORE PUSH1 0x24 PUSH1 0x0 REVERT JUMPDEST PUSH2 0x15B4 DUP3 PUSH2 0x156B JUMP JUMPDEST DUP2 ADD DUP2 DUP2 LT PUSH8 0xFFFFFFFFFFFFFFFF DUP3 GT OR ISZERO PUSH2 0x15D3 JUMPI PUSH2 0x15D2 PUSH2 0x157C JUMP JUMPDEST JUMPDEST DUP1 PUSH1 0x40 MSTORE POP POP POP JUMP JUMPDEST PUSH1 0x0 PUSH2 0x15E6 PUSH2 0x13F9 JUMP JUMPDEST SWAP1 POP PUSH2 0x15F2 DUP3 DUP3 PUSH2 0x15AB JUMP JUMPDEST SWAP2 SWAP1 POP JUMP JUMPDEST PUSH1 0x0 PUSH8 0xFFFFFFFFFFFFFFFF DUP3 GT ISZERO PUSH2 0x1612 JUMPI PUSH2 0x1611 PUSH2 0x157C JUMP JUMPDEST JUMPDEST PUSH2 0x161B DUP3 PUSH2 0x156B JUMP JUMPDEST SWAP1 POP PUSH1 0x20 DUP2 ADD SWAP1 POP SWAP2 SWAP1 POP JUMP JUMPDEST DUP3 DUP2 DUP4 CALLDATACOPY PUSH1 0x0 DUP4 DUP4 ADD MSTORE POP POP POP JUMP JUMPDEST PUSH1 0x0 PUSH2 0x164A PUSH2 0x1645 DUP5 PUSH2 0x15F7 JUMP JUMPDEST PUSH2 0x15DC JUMP JUMPDEST SWAP1 POP DUP3 DUP2 MSTORE PUSH1 0x20 DUP2 ADD DUP5 DUP5 DUP5 ADD GT ISZERO PUSH2 0x1666 JUMPI PUSH2 0x1665 PUSH2 0x1566 JUMP JUMPDEST JUMPDEST PUSH2 0x1671 DUP5 DUP3 DUP6 PUSH2 0x1628 JUMP JUMPDEST POP SWAP4 SWAP3 POP POP POP JUMP JUMPDEST PUSH1 0x0 DUP3 PUSH1 0x1F DUP4 ADD SLT PUSH2 0x168E JUMPI PUSH2 0x168D PUSH2 0x1561 JUMP JUMPDEST JUMPDEST DUP2 CALLDATALOAD PUSH2 0x169E DUP5 DUP3 PUSH1 0x20 DUP7 ADD PUSH2 0x1637 JUMP JUMPDEST SWAP2 POP POP SWAP3 SWAP2 POP POP JUMP JUMPDEST PUSH1 0x0 DUP1 PUSH1 0x40 DUP4 DUP6 SUB SLT ISZERO PUSH2 0x16BE JUMPI PUSH2 0x16BD PUSH2 0x1403 JUMP JUMPDEST JUMPDEST PUSH1 0x0 DUP4 ADD CALLDATALOAD PUSH8 0xFFFFFFFFFFFFFFFF DUP2 GT ISZERO PUSH2 0x16DC JUMPI PUSH2 0x16DB PUSH2 0x1408 JUMP JUMPDEST JUMPDEST PUSH2 0x16E8 DUP6 DUP3 DUP7 ADD PUSH2 0x1679 JUMP JUMPDEST SWAP3 POP POP PUSH1 0x20 PUSH2 0x16F9 DUP6 DUP3 DUP7 ADD PUSH2 0x142E JUMP JUMPDEST SWAP2 POP POP SWAP3 POP SWAP3 SWAP1 POP JUMP JUMPDEST PUSH1 0x0 DUP2 ISZERO ISZERO SWAP1 POP SWAP2 SWAP1 POP JUMP JUMPDEST PUSH2 0x1718 DUP2 PUSH2 0x1703 JUMP JUMPDEST DUP2 EQ PUSH2 0x1723 JUMPI PUSH1 0x0 DUP1 REVERT JUMPDEST POP JUMP JUMPDEST PUSH1 0x0 DUP2 CALLDATALOAD SWAP1 POP PUSH2 0x1735 DUP2 PUSH2 0x170F JUMP JUMPDEST SWAP3 SWAP2 POP POP JUMP JUMPDEST PUSH1 0x0 DUP1 PUSH1 0x40 DUP4 DUP6 SUB SLT ISZERO PUSH2 0x1752 JUMPI PUSH2 0x1751 PUSH2 0x1403 JUMP JUMPDEST JUMPDEST PUSH1 0x0 PUSH2 0x1760 DUP6 DUP3 DUP7 ADD PUSH2 0x142E JUMP JUMPDEST SWAP3 POP POP PUSH1 0x20 PUSH2 0x1771 DUP6 DUP3 DUP7 ADD PUSH2 0x1726 JUMP JUMPDEST SWAP2 POP POP SWAP3 POP SWAP3 SWAP1 POP JUMP JUMPDEST PUSH2 0x1784 DUP2 PUSH2 0x14C8 JUMP JUMPDEST DUP3 MSTORE POP POP JUMP JUMPDEST PUSH1 0x0 DUP2 MLOAD SWAP1 POP SWAP2 SWAP1 POP JUMP JUMPDEST PUSH1 0x0 DUP3 DUP3 MSTORE PUSH1 0x20 DUP3 ADD SWAP1 POP SWAP3 SWAP2 POP POP JUMP JUMPDEST PUSH1 0x0 JUMPDEST DUP4 DUP2 LT ISZERO PUSH2 0x17C4 JUMPI DUP1 DUP3 ADD MLOAD DUP2 DUP5 ADD MSTORE PUSH1 0x20 DUP2 ADD SWAP1 POP PUSH2 0x17A9 JUMP JUMPDEST PUSH1 0x0 DUP5 DUP5 ADD MSTORE POP POP POP POP JUMP JUMPDEST PUSH1 0x0 PUSH2 0x17DB DUP3 PUSH2 0x178A JUMP JUMPDEST PUSH2 0x17E5 DUP2 DUP6 PUSH2 0x1795 JUMP JUMPDEST SWAP4 POP PUSH2 0x17F5 DUP2 DUP6 PUSH1 0x20 DUP7 ADD PUSH2 0x17A6 JUMP JUMPDEST PUSH2 0x17FE DUP2 PUSH2 0x156B JUMP JUMPDEST DUP5 ADD SWAP2 POP POP SWAP3 SWAP2 POP POP JUMP JUMPDEST PUSH1 0x0 PUSH1 0x40 DUP3 ADD SWAP1 POP PUSH2 0x181E PUSH1 0x0 DUP4 ADD DUP6 PUSH2 0x177B JUMP JUMPDEST DUP2 DUP2 SUB PUSH1 0x20 DUP4 ADD MSTORE PUSH2 0x1830 DUP2 DUP5 PUSH2 0x17D0 JUMP JUMPDEST SWAP1 POP SWAP4 SWAP3 POP POP POP JUMP JUMPDEST PUSH1 0x0 PUSH1 0x20 DUP3 ADD SWAP1 POP PUSH2 0x184E PUSH1 0x0 DUP4 ADD DUP5 PUSH2 0x177B JUMP JUMPDEST SWAP3 SWAP2 POP POP JUMP JUMPDEST PUSH2 0x185D DUP2 PUSH2 0x1703 JUMP JUMPDEST DUP3 MSTORE POP POP JUMP JUMPDEST PUSH1 0x0 PUSH2 0x140 DUP3 ADD SWAP1 POP PUSH2 0x1879 PUSH1 0x0 DUP4 ADD DUP14 PUSH2 0x1470 JUMP JUMPDEST PUSH2 0x1886 PUSH1 0x20 DUP4 ADD DUP13 PUSH2 0x177B JUMP JUMPDEST DUP2 DUP2 SUB PUSH1 0x40 DUP4 ADD MSTORE PUSH2 0x1898 DUP2 DUP12 PUSH2 0x17D0 JUMP JUMPDEST SWAP1 POP PUSH2 0x18A7 PUSH1 0x60 DUP4 ADD DUP11 PUSH2 0x1470 JUMP JUMPDEST PUSH2 0x18B4 PUSH1 0x80 DUP4 ADD DUP10 PUSH2 0x1470 JUMP JUMPDEST PUSH2 0x18C1 PUSH1 0xA0 DUP4 ADD DUP9 PUSH2 0x1854 JUMP JUMPDEST PUSH2 0x18CE PUSH1 0xC0 DUP4 ADD DUP8 PUSH2 0x1854 JUMP JUMPDEST PUSH2 0x18DB PUSH1 0xE0 DUP4 ADD DUP7 PUSH2 0x1470 JUMP JUMPDEST PUSH2 0x18E9 PUSH2 0x100 DUP4 ADD DUP6 PUSH2 0x1470 JUMP JUMPDEST PUSH2 0x18F7 PUSH2 0x120 DUP4 ADD DUP5 PUSH2 0x1854 JUMP JUMPDEST SWAP12 SWAP11 POP POP POP POP POP POP POP POP POP POP POP JUMP JUMPDEST PUSH1 0x0 PUSH1 0xA0 DUP3 ADD SWAP1 POP PUSH2 0x191B PUSH1 0x0 DUP4 ADD DUP9 PUSH2 0x1470 JUMP JUMPDEST PUSH2 0x1928 PUSH1 0x20 DUP4 ADD DUP8 PUSH2 0x1470 JUMP JUMPDEST PUSH2 0x1935 PUSH1 0x40 DUP4 ADD DUP7 PUSH2 0x1854 JUMP JUMPDEST PUSH2 0x1942 PUSH1 0x60 DUP4 ADD DUP6 PUSH2 0x1854 JUMP JUMPDEST PUSH2 0x194F PUSH1 0x80 DUP4 ADD DUP5 PUSH2 0x1854 JUMP JUMPDEST SWAP7 SWAP6 POP POP POP POP POP POP JUMP JUMPDEST PUSH1 0x0 DUP3 DUP3 MSTORE PUSH1 0x20 DUP3 ADD SWAP1 POP SWAP3 SWAP2 POP POP JUMP JUMPDEST PUSH32 0x4D61726B657420646F6573206E6F742065786973740000000000000000000000 PUSH1 0x0 DUP3 ADD MSTORE POP JUMP JUMPDEST PUSH1 0x0 PUSH2 0x19A0 PUSH1 0x15 DUP4 PUSH2 0x1959 JUMP JUMPDEST SWAP2 POP PUSH2 0x19AB DUP3 PUSH2 0x196A JUMP JUMPDEST PUSH1 0x20 DUP3 ADD SWAP1 POP SWAP2 SWAP1 POP JUMP JUMPDEST PUSH1 0x0 PUSH1 0x20 DUP3 ADD SWAP1 POP DUP2 DUP2 SUB PUSH1 0x0 DUP4 ADD MSTORE PUSH2 0x19CF DUP2 PUSH2 0x1993 JUMP JUMPDEST SWAP1 POP SWAP2 SWAP1 POP JUMP JUMPDEST PUSH32 0x4D657461646174612063616E6E6F7420626520656D7074790000000000000000 PUSH1 0x0 DUP3 ADD MSTORE POP JUMP JUMPDEST PUSH1 0x0 PUSH2 0x1A0C PUSH1 0x18 DUP4 PUSH2 0x1959 JUMP JUMPDEST SWAP2 POP PUSH2 0x1A17 DUP3 PUSH2 0x19D6 JUMP JUMPDEST PUSH1 0x20 DUP3 ADD SWAP1 POP SWAP2 SWAP1 POP JUMP JUMPDEST PUSH1 0x0 PUSH1 0x20 DUP3 ADD SWAP1 POP DUP2 DUP2 SUB PUSH1 0x0 DUP4 ADD MSTORE PUSH2 0x1A3B DUP2 PUSH2 0x19FF JUMP JUMPDEST SWAP1 POP SWAP2 SWAP1 POP JUMP JUMPDEST PUSH32 0x5265736F6C7574696F6E2064617465206D75737420626520696E207468652066 PUSH1 0x0 DUP3 ADD MSTORE PUSH32 0x7574757265000000000000000000000000000000000000000000000000000000 PUSH1 0x20 DUP3 ADD MSTORE POP JUMP JUMPDEST PUSH1 0x0 PUSH2 0x1A9E PUSH1 0x25 DUP4 PUSH2 0x1959 JUMP JUMPDEST SWAP2 POP PUSH2 0x1AA9 DUP3 PUSH2 0x1A42 JUMP JUMPDEST PUSH1 0x40 DUP3 ADD SWAP1 POP SWAP2 SWAP1 POP JUMP JUMPDEST PUSH1 0x0 PUSH1 0x20 DUP3 ADD SWAP1 POP DUP2 DUP2 SUB PUSH1 0x0 DUP4 ADD MSTORE PUSH2 0x1ACD DUP2 PUSH2 0x1A91 JUMP JUMPDEST SWAP1 POP SWAP2 SWAP1 POP JUMP JUMPDEST PUSH32 0x496E697469616C206C6971756964697479206D757374206265206174206C6561 PUSH1 0x0 DUP3 ADD MSTORE PUSH32 0x737420302E312045544800000000000000000000000000000000000000000000 PUSH1 0x20 DUP3 ADD MSTORE POP JUMP JUMPDEST PUSH1 0x0 PUSH2 0x1B30 PUSH1 0x2A DUP4 PUSH2 0x1959 JUMP JUMPDEST SWAP2 POP PUSH2 0x1B3B DUP3 PUSH2 0x1AD4 JUMP JUMPDEST PUSH1 0x40 DUP3 ADD SWAP1 POP SWAP2 SWAP1 POP JUMP JUMPDEST PUSH1 0x0 PUSH1 0x20 DUP3 ADD SWAP1 POP DUP2 DUP2 SUB PUSH1 0x0 DUP4 ADD MSTORE PUSH2 0x1B5F DUP2 PUSH2 0x1B23 JUMP JUMPDEST SWAP1 POP SWAP2 SWAP1 POP JUMP JUMPDEST PUSH32 0x4E487B7100000000000000000000000000000000000000000000000000000000 PUSH1 0x0 MSTORE PUSH1 0x11 PUSH1 0x4 MSTORE PUSH1 0x24 PUSH1 0x0 REVERT JUMPDEST PUSH1 0x0 PUSH2 0x1BA0 DUP3 PUSH2 0x140D JUMP JUMPDEST SWAP2 POP PUSH32 0xFFFFFFFFFFFFFFFFFFFFFFFFFFFFFFFFFFFFFFFFFFFFFFFFFFFFFFFFFFFFFFFF DUP3 SUB PUSH2 0x1BD2 JUMPI PUSH2 0x1BD1 PUSH2 0x1B66 JUMP JUMPDEST JUMPDEST PUSH1 0x1 DUP3 ADD SWAP1 POP SWAP2 SWAP1 POP JUMP JUMPDEST PUSH32 0x4E487B7100000000000000000000000000000000000000000000000000000000 PUSH1 0x0 MSTORE PUSH1 0x22 PUSH1 0x4 MSTORE PUSH1 0x24 PUSH1 0x0 REVERT JUMPDEST PUSH1 0x0 PUSH1 0x2 DUP3 DIV SWAP1 POP PUSH1 0x1 DUP3 AND DUP1 PUSH2 0x1C24 JUMPI PUSH1 0x7F DUP3 AND SWAP2 POP JUMPDEST PUSH1 0x20 DUP3 LT DUP2 SUB PUSH2 0x1C37 JUMPI PUSH2 0x1C36 PUSH2 0x1BDD JUMP JUMPDEST JUMPDEST POP SWAP2 SWAP1 POP JUMP JUMPDEST PUSH1 0x0 DUP2 SWAP1 POP DUP2 PUSH1 0x0 MSTORE PUSH1 0x20 PUSH1 0x0 KECCAK256 SWAP1 POP SWAP2 SWAP1 POP JUMP JUMPDEST PUSH1 0x0 PUSH1 0x20 PUSH1 0x1F DUP4 ADD DIV SWAP1 POP SWAP2 SWAP1 POP JUMP JUMPDEST PUSH1 0x0 DUP3 DUP3 SHL SWAP1 POP SWAP3 SWAP2 POP POP JUMP JUMPDEST PUSH1 0x0 PUSH1 0x8 DUP4 MUL PUSH2 0x1C9F PUSH32 0xFFFFFFFFFFFFFFFFFFFFFFFFFFFFFFFFFFFFFFFFFFFFFFFFFFFFFFFFFFFFFFFF DUP3 PUSH2 0x1C62 JUMP JUMPDEST PUSH2 0x1CA9 DUP7 DUP4 PUSH2 0x1C62 JUMP JUMPDEST SWAP6 POP DUP1 NOT DUP5 AND SWAP4 POP DUP1 DUP7 AND DUP5 OR SWAP3 POP POP POP SWAP4 SWAP3 POP POP POP JUMP JUMPDEST PUSH1 0x0 DUP2 SWAP1 POP SWAP2 SWAP1 POP JUMP JUMPDEST PUSH1 0x0 PUSH2 0x1CE6 PUSH2 0x1CE1 PUSH2 0x1CDC DUP5 PUSH2 0x140D JUMP JUMPDEST PUSH2 0x1CC1 JUMP JUMPDEST PUSH2 0x140D JUMP JUMPDEST SWAP1 POP SWAP2 SWAP1 POP JUMP JUMPDEST PUSH1 0x0 DUP2 SWAP1 POP SWAP2 SWAP1 POP JUMP JUMPDEST PUSH2 0x1D00 DUP4 PUSH2 0x1CCB JUMP JUMPDEST PUSH2 0x1D14 PUSH2 0x1D0C DUP3 PUSH2 0x1CED JUMP JUMPDEST DUP5 DUP5 SLOAD PUSH2 0x1C6F JUMP JUMPDEST DUP3 SSTORE POP POP POP POP JUMP JUMPDEST PUSH1 0x0 SWAP1 JUMP JUMPDEST PUSH2 0x1D29 PUSH2 0x1D1C JUMP JUMPDEST PUSH2 0x1D34 DUP2 DUP5 DUP5 PUSH2 0x1CF7 JUMP JUMPDEST POP POP POP JUMP JUMPDEST JUMPDEST DUP2 DUP2 LT ISZERO PUSH2 0x1D58 JUMPI PUSH2 0x1D4D PUSH1 0x0 DUP3 PUSH2 0x1D21 JUMP JUMPDEST PUSH1 0x1 DUP2 ADD SWAP1 POP PUSH2 0x1D3A JUMP JUMPDEST POP POP JUMP JUMPDEST PUSH1 0x1F DUP3 GT ISZERO PUSH2 0x1D9D JUMPI PUSH2 0x1D6E DUP2 PUSH2 0x1C3D JUMP JUMPDEST PUSH2 0x1D77 DUP5 PUSH2 0x1C52 JUMP JUMPDEST DUP2 ADD PUSH1 0x20 DUP6 LT ISZERO PUSH2 0x1D86 JUMPI DUP2 SWAP1 POP JUMPDEST PUSH2 0x1D9A PUSH2 0x1D92 DUP6 PUSH2 0x1C52 JUMP JUMPDEST DUP4 ADD DUP3 PUSH2 0x1D39 JUMP JUMPDEST POP POP JUMPDEST POP POP POP JUMP JUMPDEST PUSH1 0x0 DUP3 DUP3 SHR SWAP1 POP SWAP3 SWAP2 POP POP JUMP JUMPDEST PUSH1 0x0 PUSH2 0x1DC0 PUSH1 0x0 NOT DUP5 PUSH1 0x8 MUL PUSH2 0x1DA2 JUMP JUMPDEST NOT DUP1 DUP4 AND SWAP2 POP POP SWAP3 SWAP2 POP POP JUMP JUMPDEST PUSH1 0x0 PUSH2 0x1DD9 DUP4 DUP4 PUSH2 0x1DAF JUMP JUMPDEST SWAP2 POP DUP3 PUSH1 0x2 MUL DUP3 OR SWAP1 POP SWAP3 SWAP2 POP POP JUMP JUMPDEST PUSH2 0x1DF2 DUP3 PUSH2 0x178A JUMP JUMPDEST PUSH8 0xFFFFFFFFFFFFFFFF DUP2 GT ISZERO PUSH2 0x1E0B JUMPI PUSH2 0x1E0A PUSH2 0x157C JUMP JUMPDEST JUMPDEST PUSH2 0x1E15 DUP3 SLOAD PUSH2 0x1C0C JUMP JUMPDEST PUSH2 0x1E20 DUP3 DUP3 DUP6 PUSH2 0x1D5C JUMP JUMPDEST PUSH1 0x0 PUSH1 0x20 SWAP1 POP PUSH1 0x1F DUP4 GT PUSH1 0x1 DUP2 EQ PUSH2 0x1E53 JUMPI PUSH1 0x0 DUP5 ISZERO PUSH2 0x1E41 JUMPI DUP3 DUP8 ADD MLOAD SWAP1 POP JUMPDEST PUSH2 0x1E4B DUP6 DUP3 PUSH2 0x1DCD JUMP JUMPDEST DUP7 SSTORE POP PUSH2 0x1EB3 JUMP JUMPDEST PUSH1 0x1F NOT DUP5 AND PUSH2 0x1E61 DUP7 PUSH2 0x1C3D JUMP JUMPDEST PUSH1 0x0 JUMPDEST DUP3 DUP2 LT ISZERO PUSH2 0x1E89 JUMPI DUP5 DUP10 ADD MLOAD DUP3 SSTORE PUSH1 0x1 DUP3 ADD SWAP2 POP PUSH1 0x20 DUP6 ADD SWAP5 POP PUSH1 0x20 DUP2 ADD SWAP1 POP PUSH2 0x1E64 JUMP JUMPDEST DUP7 DUP4 LT ISZERO PUSH2 0x1EA6 JUMPI DUP5 DUP10 ADD MLOAD PUSH2 0x1EA2 PUSH1 0x1F DUP10 AND DUP3 PUSH2 0x1DAF JUMP JUMPDEST DUP4 SSTORE POP JUMPDEST PUSH1 0x1 PUSH1 0x2 DUP9 MUL ADD DUP9 SSTORE POP POP POP JUMPDEST POP POP POP POP POP POP JUMP JUMPDEST PUSH32 0x4E487B7100000000000000000000000000000000000000000000000000000000 PUSH1 0x0 MSTORE PUSH1 0x12 PUSH1 0x4 MSTORE PUSH1 0x24 PUSH1 0x0 REVERT JUMPDEST PUSH1 0x0 PUSH2 0x1EF5 DUP3 PUSH2 0x140D JUMP JUMPDEST SWAP2 POP PUSH2 0x1F00 DUP4 PUSH2 0x140D JUMP JUMPDEST SWAP3 POP DUP3 PUSH2 0x1F10 JUMPI PUSH2 0x1F0F PUSH2 0x1EBB JUMP JUMPDEST JUMPDEST DUP3 DUP3 DIV SWAP1 POP SWAP3 SWAP2 POP POP JUMP JUMPDEST PUSH32 0x4F6E6C792063726561746F722063616E20706572666F726D2074686973206163 PUSH1 0x0 DUP3 ADD MSTORE PUSH32 0x74696F6E00000000000000000000000000000000000000000000000000000000 PUSH1 0x20 DUP3 ADD MSTORE POP JUMP JUMPDEST PUSH1 0x0 PUSH2 0x1F77 PUSH1 0x24 DUP4 PUSH2 0x1959 JUMP JUMPDEST SWAP2 POP PUSH2 0x1F82 DUP3 PUSH2 0x1F1B JUMP JUMPDEST PUSH1 0x40 DUP3 ADD SWAP1 POP SWAP2 SWAP1 POP JUMP JUMPDEST PUSH1 0x0 PUSH1 0x20 DUP3 ADD SWAP1 POP DUP2 DUP2 SUB PUSH1 0x0 DUP4 ADD MSTORE PUSH2 0x1FA6 DUP2 PUSH2 0x1F6A JUMP JUMPDEST SWAP1 POP SWAP2 SWAP1 POP JUMP JUMPDEST PUSH32 0x4D61726B657420616C7265616479207265736F6C766564000000000000000000 PUSH1 0x0 DUP3 ADD MSTORE POP JUMP JUMPDEST PUSH1 0x0 PUSH2 0x1FE3 PUSH1 0x17 DUP4 PUSH2 0x1959 JUMP JUMPDEST SWAP2 POP PUSH2 0x1FEE DUP3 PUSH2 0x1FAD JUMP JUMPDEST PUSH1 0x20 DUP3 ADD SWAP1 POP SWAP2 SWAP1 POP JUMP JUMPDEST PUSH1 0x0 PUSH1 0x20 DUP3 ADD SWAP1 POP DUP2 DUP2 SUB PUSH1 0x0 DUP4 ADD MSTORE PUSH2 0x2012 DUP2 PUSH2 0x1FD6 JUMP JUMPDEST SWAP1 POP SWAP2 SWAP1 POP JUMP JUMPDEST PUSH32 0x5265736F6C7574696F6E2064617465206E6F7420726561636865640000000000 PUSH1 0x0 DUP3 ADD MSTORE POP JUMP JUMPDEST PUSH1 0x0 PUSH2 0x204F PUSH1 0x1B DUP4 PUSH2 0x1959 JUMP JUMPDEST SWAP2 POP PUSH2 0x205A DUP3 PUSH2 0x2019 JUMP JUMPDEST PUSH1 0x20 DUP3 ADD SWAP1 POP SWAP2 SWAP1 POP JUMP JUMPDEST PUSH1 0x0 PUSH1 0x20 DUP3 ADD SWAP1 POP DUP2 DUP2 SUB PUSH1 0x0 DUP4 ADD MSTORE PUSH2 0x207E DUP2 PUSH2 0x2042 JUMP JUMPDEST SWAP1 POP SWAP2 SWAP1 POP JUMP JUMPDEST PUSH1 0x0 PUSH1 0x20 DUP3 ADD SWAP1 POP PUSH2 0x209A PUSH1 0x0 DUP4 ADD DUP5 PUSH2 0x1854 JUMP JUMPDEST SWAP3 SWAP2 POP POP JUMP JUMPDEST PUSH32 0x4D61726B6574206E6F74207265736F6C76656400000000000000000000000000 PUSH1 0x0 DUP3 ADD MSTORE POP JUMP JUMPDEST PUSH1 0x0 PUSH2 0x20D6 PUSH1 0x13 DUP4 PUSH2 0x1959 JUMP JUMPDEST SWAP2 POP PUSH2 0x20E1 DUP3 PUSH2 0x20A0 JUMP JUMPDEST PUSH1 0x20 DUP3 ADD SWAP1 POP SWAP2 SWAP1 POP JUMP JUMPDEST PUSH1 0x0 PUSH1 0x20 DUP3 ADD SWAP1 POP DUP2 DUP2 SUB PUSH1 0x0 DUP4 ADD MSTORE PUSH2 0x2105 DUP2 PUSH2 0x20C9 JUMP JUMPDEST SWAP1 POP SWAP2 SWAP1 POP JUMP JUMPDEST PUSH32 0x4E6F2077696E6E696E672062657420746F20636C61696D000000000000000000 PUSH1 0x0 DUP3 ADD MSTORE POP JUMP JUMPDEST PUSH1 0x0 PUSH2 0x2142 PUSH1 0x17 DUP4 PUSH2 0x1959 JUMP JUMPDEST SWAP2 POP PUSH2 0x214D DUP3 PUSH2 0x210C JUMP JUMPDEST PUSH1 0x20 DUP3 ADD SWAP1 POP SWAP2 SWAP1 POP JUMP JUMPDEST PUSH1 0x0 PUSH1 0x20 DUP3 ADD SWAP1 POP DUP2 DUP2 SUB PUSH1 0x0 DUP4 ADD MSTORE PUSH2 0x2171 DUP2 PUSH2 0x2135 JUMP JUMPDEST SWAP1 POP SWAP2 SWAP1 POP JUMP JUMPDEST PUSH1 0x0 PUSH2 0x2183 DUP3 PUSH2 0x140D JUMP JUMPDEST SWAP2 POP PUSH2 0x218E DUP4 PUSH2 0x140D JUMP JUMPDEST SWAP3 POP DUP3 DUP3 ADD SWAP1 POP DUP1 DUP3 GT ISZERO PUSH2 0x21A6 JUMPI PUSH2 0x21A5 PUSH2 0x1B66 JUMP JUMPDEST JUMPDEST SWAP3 SWAP2 POP POP JUMP JUMPDEST PUSH1 0x0 PUSH2 0x21B7 DUP3 PUSH2 0x140D JUMP JUMPDEST SWAP2 POP PUSH2 0x21C2 DUP4 PUSH2 0x140D JUMP JUMPDEST SWAP3 POP DUP3 DUP3 MUL PUSH2 0x21D0 DUP2 PUSH2 0x140D JUMP JUMPDEST SWAP2 POP DUP3 DUP3 DIV DUP5 EQ DUP4 ISZERO OR PUSH2 0x21E7 JUMPI PUSH2 0x21E6 PUSH2 0x1B66 JUMP JUMPDEST JUMPDEST POP SWAP3 SWAP2 POP POP JUMP JUMPDEST PUSH1 0x0 PUSH2 0x21F9 DUP3 PUSH2 0x140D JUMP JUMPDEST SWAP2 POP PUSH2 0x2204 DUP4 PUSH2 0x140D JUMP JUMPDEST SWAP3 POP DUP3 DUP3 SUB SWAP1 POP DUP2 DUP2 GT ISZERO PUSH2 0x221C JUMPI PUSH2 0x221B PUSH2 0x1B66 JUMP JUMPDEST JUMPDEST SWAP3 SWAP2 POP POP JUMP JUMPDEST PUSH32 0x4D61726B6574206973206E6F7420616374697665000000000000000000000000 PUSH1 0x0 DUP3 ADD MSTORE POP JUMP JUMPDEST PUSH1 0x0 PUSH2 0x2258 PUSH1 0x14 DUP4 PUSH2 0x1959 JUMP JUMPDEST SWAP2 POP PUSH2 0x2263 DUP3 PUSH2 0x2222 JUMP JUMPDEST PUSH1 0x20 DUP3 ADD SWAP1 POP SWAP2 SWAP1 POP JUMP JUMPDEST PUSH1 0x0 PUSH1 0x20 DUP3 ADD SWAP1 POP DUP2 DUP2 SUB PUSH1 0x0 DUP4 ADD MSTORE PUSH2 0x2287 DUP2 PUSH2 0x224B JUMP JUMPDEST SWAP1 POP SWAP2 SWAP1 POP JUMP JUMPDEST PUSH32 0x4D61726B65742068617320657870697265640000000000000000000000000000 PUSH1 0x0 DUP3 ADD MSTORE POP JUMP JUMPDEST PUSH1 0x0 PUSH2 0x22C4 PUSH1 0x12 DUP4 PUSH2 0x1959 JUMP JUMPDEST SWAP2 POP PUSH2 0x22CF DUP3 PUSH2 0x228E JUMP JUMPDEST PUSH1 0x20 DUP3 ADD SWAP1 POP SWAP2 SWAP1 POP JUMP JUMPDEST PUSH1 0x0 PUSH1 0x20 DUP3 ADD SWAP1 POP DUP2 DUP2 SUB PUSH1 0x0 DUP4 ADD MSTORE PUSH2 0x22F3 DUP2 PUSH2 0x22B7 JUMP JUMPDEST SWAP1 POP SWAP2 SWAP1 POP JUMP JUMPDEST PUSH32 0x42657420616D6F756E74206D7573742062652067726561746572207468616E20 PUSH1 0x0 DUP3 ADD MSTORE PUSH32 0x7A65726F00000000000000000000000000000000000000000000000000000000 PUSH1 0x20 DUP3 ADD MSTORE POP JUMP JUMPDEST PUSH1 0x0 PUSH2 0x2356 PUSH1 0x24 DUP4 PUSH2 0x1959 JUMP JUMPDEST SWAP2 POP PUSH2 0x2361 DUP3 PUSH2 0x22FA JUMP JUMPDEST PUSH1 0x40 DUP3 ADD SWAP1 POP SWAP2 SWAP1 POP JUMP JUMPDEST PUSH1 0x0 PUSH1 0x20 DUP3 ADD SWAP1 POP DUP2 DUP2 SUB PUSH1 0x0 DUP4 ADD MSTORE PUSH2 0x2385 DUP2 PUSH2 0x2349 JUMP JUMPDEST SWAP1 POP SWAP2 SWAP1 POP JUMP JUMPDEST PUSH1 0x0 PUSH1 0x40 DUP3 ADD SWAP1 POP PUSH2 0x23A1 PUSH1 0x0 DUP4 ADD DUP6 PUSH2 0x1854 JUMP JUMPDEST PUSH2 0x23AE PUSH1 0x20 DUP4 ADD DUP5 PUSH2 0x1470 JUMP JUMPDEST SWAP4 SWAP3 POP POP POP JUMP INVALID LOG2 PUSH5 0x6970667358 0x22 SLT KECCAK256 0xCC AND 0xC4 SIGNEXTEND DELEGATECALL ISZERO SGT 0xDC 0xED 0xAE 0x29 SWAP2 DUP6 0x23 DUP4 CALLER 0x23 ADDMOD SWAP6 PUSH3 0xA1D757 CHAINID 0x2E SWAP7 0xF6 CALLDATACOPY GASPRICE LOG1 0xB2 0x2C PUSH5 0x736F6C6343 STOP ADDMOD EQ STOP CALLER "},"methodIdentifiers":{"claimPayout(uint256)":"8a69614e","createMarket(bytes,uint256)":"4bcbb25d","getMarketMetadata(uint256)":"6b6445b6","getMarketShares(uint256)":"05a7e5b7","getMarketStatus(uint256)":"ec5a711a","getUserBets(uint256,address)":"fa744dd3","marketCount()":"ec979082","markets(uint256)":"b1283e77","noBets(uint256,address)":"155e4b82","owner()":"8da5cb5b","placeBet(uint256,bool)":"9ed9c74d","resolveMarket(uint256,bool)":"57bde446","yesBets(uint256,address)":"354c6199"}}}}}