{
  "_format": "hh-sol-artifact-1",
  "contractName": "Crowdfunding",
  "sourceName": "contracts/CrowdFunding.sol",
  "abi": [
    {
      "anonymous": false,
      "inputs": [
        {
          "indexed": false,
          "internalType": "uint256",
          "name": "campaignId",
          "type": "uint256"
        },
        {
          "indexed": false,
          "internalType": "uint256",
          "name": "amountRaised",
          "type": "uint256"
        }
      ],
      "name": "CampaignCompleted",
      "type": "event"
    },
    {
      "anonymous": false,
      "inputs": [
        {
          "indexed": false,
          "internalType": "uint256",
          "name": "id",
          "type": "uint256"
        },
        {
          "indexed": false,
          "internalType": "address",
          "name": "creator",
          "type": "address"
        },
        {
          "indexed": false,
          "internalType": "string",
          "name": "title",
          "type": "string"
        },
        {
          "indexed": false,
          "internalType": "uint256",
          "name": "goal",
          "type": "uint256"
        },
        {
          "indexed": false,
          "internalType": "uint256",
          "name": "deadline",
          "type": "uint256"
        }
      ],
      "name": "CampaignCreated",
      "type": "event"
    },
    {
      "anonymous": false,
      "inputs": [
        {
          "indexed": false,
          "internalType": "uint256",
          "name": "campaignId",
          "type": "uint256"
        },
        {
          "indexed": false,
          "internalType": "address",
          "name": "contributor",
          "type": "address"
        },
        {
          "indexed": false,
          "internalType": "uint256",
          "name": "amount",
          "type": "uint256"
        }
      ],
      "name": "ContributionMade",
      "type": "event"
    },
    {
      "anonymous": false,
      "inputs": [
        {
          "indexed": false,
          "internalType": "uint256",
          "name": "campaignId",
          "type": "uint256"
        },
        {
          "indexed": false,
          "internalType": "address",
          "name": "contributor",
          "type": "address"
        },
        {
          "indexed": false,
          "internalType": "uint256",
          "name": "amount",
          "type": "uint256"
        }
      ],
      "name": "RefundIssued",
      "type": "event"
    },
    {
      "inputs": [],
      "name": "campaignCount",
      "outputs": [
        {
          "internalType": "uint256",
          "name": "",
          "type": "uint256"
        }
      ],
      "stateMutability": "view",
      "type": "function"
    },
    {
      "inputs": [
        {
          "internalType": "uint256",
          "name": "",
          "type": "uint256"
        }
      ],
      "name": "campaigns",
      "outputs": [
        {
          "internalType": "address payable",
          "name": "creator",
          "type": "address"
        },
        {
          "internalType": "string",
          "name": "title",
          "type": "string"
        },
        {
          "internalType": "string",
          "name": "description",
          "type": "string"
        },
        {
          "internalType": "uint256",
          "name": "goal",
          "type": "uint256"
        },
        {
          "internalType": "uint256",
          "name": "deadline",
          "type": "uint256"
        },
        {
          "internalType": "uint256",
          "name": "amountRaised",
          "type": "uint256"
        },
        {
          "internalType": "bool",
          "name": "completed",
          "type": "bool"
        }
      ],
      "stateMutability": "view",
      "type": "function"
    },
    {
      "inputs": [
        {
          "internalType": "uint256",
          "name": "_campaignId",
          "type": "uint256"
        }
      ],
      "name": "contribute",
      "outputs": [],
      "stateMutability": "payable",
      "type": "function"
    },
    {
      "inputs": [
        {
          "internalType": "string",
          "name": "_title",
          "type": "string"
        },
        {
          "internalType": "string",
          "name": "_description",
          "type": "string"
        },
        {
          "internalType": "uint256",
          "name": "_goal",
          "type": "uint256"
        },
        {
          "internalType": "uint256",
          "name": "_duration",
          "type": "uint256"
        }
      ],
      "name": "createCampaign",
      "outputs": [],
      "stateMutability": "nonpayable",
      "type": "function"
    },
    {
      "inputs": [
        {
          "internalType": "uint256",
          "name": "_campaignId",
          "type": "uint256"
        }
      ],
      "name": "getCampaignDetails",
      "outputs": [
        {
          "internalType": "address",
          "name": "creator",
          "type": "address"
        },
        {
          "internalType": "string",
          "name": "title",
          "type": "string"
        },
        {
          "internalType": "string",
          "name": "description",
          "type": "string"
        },
        {
          "internalType": "uint256",
          "name": "goal",
          "type": "uint256"
        },
        {
          "internalType": "uint256",
          "name": "deadline",
          "type": "uint256"
        },
        {
          "internalType": "uint256",
          "name": "amountRaised",
          "type": "uint256"
        },
        {
          "internalType": "bool",
          "name": "completed",
          "type": "bool"
        }
      ],
      "stateMutability": "view",
      "type": "function"
    },
    {
      "inputs": [
        {
          "internalType": "uint256",
          "name": "_campaignId",
          "type": "uint256"
        }
      ],
      "name": "refund",
      "outputs": [],
      "stateMutability": "nonpayable",
      "type": "function"
    }
  ],
  "bytecode": "0x608060405234801561001057600080fd5b5061176f806100206000396000f3fe6080604052600436106100555760003560e01c8063141961bc1461005a578063278ecde11461009d5780637274e30d146100c6578063a318f269146100f1578063c1cbbca71461011a578063d993de6214610136575b600080fd5b34801561006657600080fd5b50610081600480360381019061007c9190610b76565b610179565b6040516100949796959493929190610c9e565b60405180910390f35b3480156100a957600080fd5b506100c460048036038101906100bf9190610b76565b6102f8565b005b3480156100d257600080fd5b506100db61055b565b6040516100e89190610d1b565b60405180910390f35b3480156100fd57600080fd5b5061011860048036038101906101139190610e6b565b610561565b005b610134600480360381019061012f9190610b76565b61070d565b005b34801561014257600080fd5b5061015d60048036038101906101589190610b76565b61098a565b6040516101709796959493929190610f2b565b60405180910390f35b60016020528060005260406000206000915090508060000160009054906101000a900473ffffffffffffffffffffffffffffffffffffffff16908060010180546101c290610fd7565b80601f01602080910402602001604051908101604052809291908181526020018280546101ee90610fd7565b801561023b5780601f106102105761010080835404028352916020019161023b565b820191906000526020600020905b81548152906001019060200180831161021e57829003601f168201915b50505050509080600201805461025090610fd7565b80601f016020809104026020016040519081016040528092919081815260200182805461027c90610fd7565b80156102c95780601f1061029e576101008083540402835291602001916102c9565b820191906000526020600020905b8154815290600101906020018083116102ac57829003601f168201915b5050505050908060030154908060040154908060050154908060060160009054906101000a900460ff16905087565b60006001600083815260200190815260200160002090508060040154421015610356576040517f08c379a000000000000000000000000000000000000000000000000000000000815260040161034d90611054565b60405180910390fd5b8060060160009054906101000a900460ff16156103a8576040517f08c379a000000000000000000000000000000000000000000000000000000000815260040161039f906110c0565b60405180910390fd5b60008160070160003373ffffffffffffffffffffffffffffffffffffffff1673ffffffffffffffffffffffffffffffffffffffff168152602001908152602001600020541161042c576040517f08c379a00000000000000000000000000000000000000000000000000000000081526004016104239061112c565b60405180910390fd5b60008160070160003373ffffffffffffffffffffffffffffffffffffffff1673ffffffffffffffffffffffffffffffffffffffff16815260200190815260200160002054905060008260070160003373ffffffffffffffffffffffffffffffffffffffff1673ffffffffffffffffffffffffffffffffffffffff16815260200190815260200160002081905550808260050160008282546104cd919061117b565b925050819055503373ffffffffffffffffffffffffffffffffffffffff166108fc829081150290604051600060405180830381858888f1935050505015801561051a573d6000803e3d6000fd5b507f7a482fdeb6bc9a1376f597068a214a7a39472bb2eff1b8cad21ba04f49ddca1b83338360405161054e939291906111af565b60405180910390a1505050565b60005481565b600082116105a4576040517f08c379a000000000000000000000000000000000000000000000000000000000815260040161059b90611232565b60405180910390fd5b600081116105e7576040517f08c379a00000000000000000000000000000000000000000000000000000000081526004016105de9061129e565b60405180910390fd5b6000808154809291906105f9906112be565b9190505550600060016000805481526020019081526020016000209050338160000160006101000a81548173ffffffffffffffffffffffffffffffffffffffff021916908373ffffffffffffffffffffffffffffffffffffffff1602179055508481600101908161066a91906114b2565b508381600201908161067c91906114b2565b5082816003018190555081426106929190611584565b81600401819055506000816005018190555060008160060160006101000a81548160ff0219169083151502179055507fdc26653af5b99b2da33e2ad69ee6600d9aeccc82b034501db4338309615ca23860005433878685600401546040516106fe9594939291906115b8565b60405180910390a15050505050565b60006001600083815260200190815260200160002090508060040154421061076a576040517f08c379a00000000000000000000000000000000000000000000000000000000081526004016107619061165e565b60405180910390fd5b8060060160009054906101000a900460ff16156107bc576040517f08c379a00000000000000000000000000000000000000000000000000000000081526004016107b3906110c0565b60405180910390fd5b600034116107ff576040517f08c379a00000000000000000000000000000000000000000000000000000000081526004016107f6906116f0565b60405180910390fd5b348160070160003373ffffffffffffffffffffffffffffffffffffffff1673ffffffffffffffffffffffffffffffffffffffff16815260200190815260200160002060008282546108509190611584565b925050819055503481600501600082825461086b9190611584565b925050819055507f0a4a91237423e0a1766a761c7cb029311d8b95d6b1b81db1b949a70c98b4e08e8233346040516108a5939291906111af565b60405180910390a180600301548160050154106109865760018160060160006101000a81548160ff0219169083151502179055508060000160009054906101000a900473ffffffffffffffffffffffffffffffffffffffff1673ffffffffffffffffffffffffffffffffffffffff166108fc82600501549081150290604051600060405180830381858888f19350505050158015610947573d6000803e3d6000fd5b507f562099c771af1034e0fa4d272eeb12a622c0e7b284ff68212cc5ddd2c1b77d3482826005015460405161097d929190611710565b60405180910390a15b5050565b60006060806000806000806000600160008a815260200190815260200160002090508060000160009054906101000a900473ffffffffffffffffffffffffffffffffffffffff1681600101826002018360030154846004015485600501548660060160009054906101000a900460ff16858054610a0690610fd7565b80601f0160208091040260200160405190810160405280929190818152602001828054610a3290610fd7565b8015610a7f5780601f10610a5457610100808354040283529160200191610a7f565b820191906000526020600020905b815481529060010190602001808311610a6257829003601f168201915b50505050509550848054610a9290610fd7565b80601f0160208091040260200160405190810160405280929190818152602001828054610abe90610fd7565b8015610b0b5780601f10610ae057610100808354040283529160200191610b0b565b820191906000526020600020905b815481529060010190602001808311610aee57829003601f168201915b50505050509450975097509750975097509750975050919395979092949650565b6000604051905090565b600080fd5b600080fd5b6000819050919050565b610b5381610b40565b8114610b5e57600080fd5b50565b600081359050610b7081610b4a565b92915050565b600060208284031215610b8c57610b8b610b36565b5b6000610b9a84828501610b61565b91505092915050565b600073ffffffffffffffffffffffffffffffffffffffff82169050919050565b6000610bce82610ba3565b9050919050565b610bde81610bc3565b82525050565b600081519050919050565b600082825260208201905092915050565b60005b83811015610c1e578082015181840152602081019050610c03565b60008484015250505050565b6000601f19601f8301169050919050565b6000610c4682610be4565b610c508185610bef565b9350610c60818560208601610c00565b610c6981610c2a565b840191505092915050565b610c7d81610b40565b82525050565b60008115159050919050565b610c9881610c83565b82525050565b600060e082019050610cb3600083018a610bd5565b8181036020830152610cc58189610c3b565b90508181036040830152610cd98188610c3b565b9050610ce86060830187610c74565b610cf56080830186610c74565b610d0260a0830185610c74565b610d0f60c0830184610c8f565b98975050505050505050565b6000602082019050610d306000830184610c74565b92915050565b600080fd5b600080fd5b7f4e487b7100000000000000000000000000000000000000000000000000000000600052604160045260246000fd5b610d7882610c2a565b810181811067ffffffffffffffff82111715610d9757610d96610d40565b5b80604052505050565b6000610daa610b2c565b9050610db68282610d6f565b919050565b600067ffffffffffffffff821115610dd657610dd5610d40565b5b610ddf82610c2a565b9050602081019050919050565b82818337600083830152505050565b6000610e0e610e0984610dbb565b610da0565b905082815260208101848484011115610e2a57610e29610d3b565b5b610e35848285610dec565b509392505050565b600082601f830112610e5257610e51610d36565b5b8135610e62848260208601610dfb565b91505092915050565b60008060008060808587031215610e8557610e84610b36565b5b600085013567ffffffffffffffff811115610ea357610ea2610b3b565b5b610eaf87828801610e3d565b945050602085013567ffffffffffffffff811115610ed057610ecf610b3b565b5b610edc87828801610e3d565b9350506040610eed87828801610b61565b9250506060610efe87828801610b61565b91505092959194509250565b6000610f1582610ba3565b9050919050565b610f2581610f0a565b82525050565b600060e082019050610f40600083018a610f1c565b8181036020830152610f528189610c3b565b90508181036040830152610f668188610c3b565b9050610f756060830187610c74565b610f826080830186610c74565b610f8f60a0830185610c74565b610f9c60c0830184610c8f565b98975050505050505050565b7f4e487b7100000000000000000000000000000000000000000000000000000000600052602260045260246000fd5b60006002820490506001821680610fef57607f821691505b60208210810361100257611001610fa8565b5b50919050565b7f43616d706169676e206973207374696c6c206163746976650000000000000000600082015250565b600061103e601883610bef565b915061104982611008565b602082019050919050565b6000602082019050818103600083015261106d81611031565b9050919050565b7f43616d706169676e20697320636f6d706c657465640000000000000000000000600082015250565b60006110aa601583610bef565b91506110b582611074565b602082019050919050565b600060208201905081810360008301526110d98161109d565b9050919050565b7f4e6f20636f6e747269627574696f6e20666f756e640000000000000000000000600082015250565b6000611116601583610bef565b9150611121826110e0565b602082019050919050565b6000602082019050818103600083015261114581611109565b9050919050565b7f4e487b7100000000000000000000000000000000000000000000000000000000600052601160045260246000fd5b600061118682610b40565b915061119183610b40565b92508282039050818111156111a9576111a861114c565b5b92915050565b60006060820190506111c46000830186610c74565b6111d16020830185610f1c565b6111de6040830184610c74565b949350505050565b7f476f616c206d7573742062652067726561746572207468616e20300000000000600082015250565b600061121c601b83610bef565b9150611227826111e6565b602082019050919050565b6000602082019050818103600083015261124b8161120f565b9050919050565b7f4475726174696f6e206d7573742062652067726561746572207468616e203000600082015250565b6000611288601f83610bef565b915061129382611252565b602082019050919050565b600060208201905081810360008301526112b78161127b565b9050919050565b60006112c982610b40565b91507fffffffffffffffffffffffffffffffffffffffffffffffffffffffffffffffff82036112fb576112fa61114c565b5b600182019050919050565b60008190508160005260206000209050919050565b60006020601f8301049050919050565b600082821b905092915050565b6000600883026113687fffffffffffffffffffffffffffffffffffffffffffffffffffffffffffffffff8261132b565b611372868361132b565b95508019841693508086168417925050509392505050565b6000819050919050565b60006113af6113aa6113a584610b40565b61138a565b610b40565b9050919050565b6000819050919050565b6113c983611394565b6113dd6113d5826113b6565b848454611338565b825550505050565b600090565b6113f26113e5565b6113fd8184846113c0565b505050565b5b81811015611421576114166000826113ea565b600181019050611403565b5050565b601f8211156114665761143781611306565b6114408461131b565b8101602085101561144f578190505b61146361145b8561131b565b830182611402565b50505b505050565b600082821c905092915050565b60006114896000198460080261146b565b1980831691505092915050565b60006114a28383611478565b9150826002028217905092915050565b6114bb82610be4565b67ffffffffffffffff8111156114d4576114d3610d40565b5b6114de8254610fd7565b6114e9828285611425565b600060209050601f83116001811461151c576000841561150a578287015190505b6115148582611496565b86555061157c565b601f19841661152a86611306565b60005b828110156115525784890151825560018201915060208501945060208101905061152d565b8683101561156f578489015161156b601f891682611478565b8355505b6001600288020188555050505b505050505050565b600061158f82610b40565b915061159a83610b40565b92508282019050808211156115b2576115b161114c565b5b92915050565b600060a0820190506115cd6000830188610c74565b6115da6020830187610f1c565b81810360408301526115ec8186610c3b565b90506115fb6060830185610c74565b6116086080830184610c74565b9695505050505050565b7f43616d706169676e2068617320656e6465640000000000000000000000000000600082015250565b6000611648601283610bef565b915061165382611612565b602082019050919050565b600060208201905081810360008301526116778161163b565b9050919050565b7f436f6e747269627574696f6e206d75737420626520677265617465722074686160008201527f6e20300000000000000000000000000000000000000000000000000000000000602082015250565b60006116da602383610bef565b91506116e58261167e565b604082019050919050565b60006020820190508181036000830152611709816116cd565b9050919050565b60006040820190506117256000830185610c74565b6117326020830184610c74565b939250505056fea264697066735822122021c22825549004de28828221e124c3196172db79765e35cc8815b22a6b9802b364736f6c63430008140033",
  "linkReferences": {},
  "deployedLinkReferences": {}
}