{
  "_format": "hh-sol-artifact-1",
  "contractName": "PredictionMarket",
  "sourceName": "contracts/polymarket.sol",
  "abi": [
    {
      "inputs": [],
      "stateMutability": "nonpayable",
      "type": "constructor"
    },
    {
      "anonymous": false,
      "inputs": [
        {
          "indexed": true,
          "internalType": "uint256",
          "name": "marketId",
          "type": "uint256"
        },
        {
          "indexed": true,
          "internalType": "address",
          "name": "bettor",
          "type": "address"
        },
        {
          "indexed": false,
          "internalType": "bool",
          "name": "outcome",
          "type": "bool"
        },
        {
          "indexed": false,
          "internalType": "uint256",
          "name": "amount",
          "type": "uint256"
        }
      ],
      "name": "BetPlaced",
      "type": "event"
    },
    {
      "anonymous": false,
      "inputs": [
        {
          "indexed": true,
          "internalType": "uint256",
          "name": "marketId",
          "type": "uint256"
        },
        {
          "indexed": true,
          "internalType": "address",
          "name": "creator",
          "type": "address"
        },
        {
          "indexed": false,
          "internalType": "uint256",
          "name": "resolutionDate",
          "type": "uint256"
        }
      ],
      "name": "MarketCreated",
      "type": "event"
    },
    {
      "anonymous": false,
      "inputs": [
        {
          "indexed": true,
          "internalType": "uint256",
          "name": "marketId",
          "type": "uint256"
        },
        {
          "indexed": false,
          "internalType": "bool",
          "name": "outcome",
          "type": "bool"
        }
      ],
      "name": "MarketResolved",
      "type": "event"
    },
    {
      "anonymous": false,
      "inputs": [
        {
          "indexed": true,
          "internalType": "uint256",
          "name": "marketId",
          "type": "uint256"
        },
        {
          "indexed": true,
          "internalType": "address",
          "name": "bettor",
          "type": "address"
        },
        {
          "indexed": false,
          "internalType": "uint256",
          "name": "amount",
          "type": "uint256"
        }
      ],
      "name": "PayoutClaimed",
      "type": "event"
    },
    {
      "inputs": [
        {
          "internalType": "uint256",
          "name": "_marketId",
          "type": "uint256"
        }
      ],
      "name": "claimPayout",
      "outputs": [],
      "stateMutability": "nonpayable",
      "type": "function"
    },
    {
      "inputs": [
        {
          "internalType": "bytes",
          "name": "_metadata",
          "type": "bytes"
        },
        {
          "internalType": "uint256",
          "name": "_resolutionDate",
          "type": "uint256"
        }
      ],
      "name": "createMarket",
      "outputs": [],
      "stateMutability": "payable",
      "type": "function"
    },
    {
      "inputs": [
        {
          "internalType": "uint256",
          "name": "_marketId",
          "type": "uint256"
        }
      ],
      "name": "getMarketMetadata",
      "outputs": [
        {
          "internalType": "address",
          "name": "creator",
          "type": "address"
        },
        {
          "internalType": "bytes",
          "name": "metadata",
          "type": "bytes"
        }
      ],
      "stateMutability": "view",
      "type": "function"
    },
    {
      "inputs": [
        {
          "internalType": "uint256",
          "name": "_marketId",
          "type": "uint256"
        }
      ],
      "name": "getMarketShares",
      "outputs": [
        {
          "internalType": "uint256",
          "name": "yesShares",
          "type": "uint256"
        },
        {
          "internalType": "uint256",
          "name": "noShares",
          "type": "uint256"
        }
      ],
      "stateMutability": "view",
      "type": "function"
    },
    {
      "inputs": [
        {
          "internalType": "uint256",
          "name": "_marketId",
          "type": "uint256"
        }
      ],
      "name": "getMarketStatus",
      "outputs": [
        {
          "internalType": "uint256",
          "name": "resolutionDate",
          "type": "uint256"
        },
        {
          "internalType": "uint256",
          "name": "initialLiquidity",
          "type": "uint256"
        },
        {
          "internalType": "bool",
          "name": "resolved",
          "type": "bool"
        },
        {
          "internalType": "bool",
          "name": "outcome",
          "type": "bool"
        },
        {
          "internalType": "bool",
          "name": "active",
          "type": "bool"
        }
      ],
      "stateMutability": "view",
      "type": "function"
    },
    {
      "inputs": [
        {
          "internalType": "uint256",
          "name": "_marketId",
          "type": "uint256"
        },
        {
          "internalType": "address",
          "name": "_user",
          "type": "address"
        }
      ],
      "name": "getUserBets",
      "outputs": [
        {
          "internalType": "uint256",
          "name": "yesBet",
          "type": "uint256"
        },
        {
          "internalType": "uint256",
          "name": "noBet",
          "type": "uint256"
        }
      ],
      "stateMutability": "view",
      "type": "function"
    },
    {
      "inputs": [],
      "name": "marketCount",
      "outputs": [
        {
          "internalType": "uint256",
          "name": "",
          "type": "uint256"
        }
      ],
      "stateMutability": "view",
      "type": "function"
    },
    {
      "inputs": [
        {
          "internalType": "uint256",
          "name": "",
          "type": "uint256"
        }
      ],
      "name": "markets",
      "outputs": [
        {
          "internalType": "uint256",
          "name": "id",
          "type": "uint256"
        },
        {
          "internalType": "address",
          "name": "creator",
          "type": "address"
        },
        {
          "internalType": "bytes",
          "name": "metadata",
          "type": "bytes"
        },
        {
          "internalType": "uint256",
          "name": "resolutionDate",
          "type": "uint256"
        },
        {
          "internalType": "uint256",
          "name": "initialLiquidity",
          "type": "uint256"
        },
        {
          "internalType": "bool",
          "name": "resolved",
          "type": "bool"
        },
        {
          "internalType": "bool",
          "name": "outcome",
          "type": "bool"
        },
        {
          "internalType": "uint256",
          "name": "yesShares",
          "type": "uint256"
        },
        {
          "internalType": "uint256",
          "name": "noShares",
          "type": "uint256"
        },
        {
          "internalType": "bool",
          "name": "active",
          "type": "bool"
        }
      ],
      "stateMutability": "view",
      "type": "function"
    },
    {
      "inputs": [
        {
          "internalType": "uint256",
          "name": "",
          "type": "uint256"
        },
        {
          "internalType": "address",
          "name": "",
          "type": "address"
        }
      ],
      "name": "noBets",
      "outputs": [
        {
          "internalType": "uint256",
          "name": "",
          "type": "uint256"
        }
      ],
      "stateMutability": "view",
      "type": "function"
    },
    {
      "inputs": [],
      "name": "owner",
      "outputs": [
        {
          "internalType": "address",
          "name": "",
          "type": "address"
        }
      ],
      "stateMutability": "view",
      "type": "function"
    },
    {
      "inputs": [
        {
          "internalType": "uint256",
          "name": "_marketId",
          "type": "uint256"
        },
        {
          "internalType": "bool",
          "name": "_outcome",
          "type": "bool"
        }
      ],
      "name": "placeBet",
      "outputs": [],
      "stateMutability": "payable",
      "type": "function"
    },
    {
      "inputs": [
        {
          "internalType": "uint256",
          "name": "_marketId",
          "type": "uint256"
        },
        {
          "internalType": "bool",
          "name": "_outcome",
          "type": "bool"
        }
      ],
      "name": "resolveMarket",
      "outputs": [],
      "stateMutability": "nonpayable",
      "type": "function"
    },
    {
      "inputs": [
        {
          "internalType": "uint256",
          "name": "",
          "type": "uint256"
        },
        {
          "internalType": "address",
          "name": "",
          "type": "address"
        }
      ],
      "name": "yesBets",
      "outputs": [
        {
          "internalType": "uint256",
          "name": "",
          "type": "uint256"
        }
      ],
      "stateMutability": "view",
      "type": "function"
    }
  ],
  "bytecode": "0x608060405234801561001057600080fd5b50336000806101000a81548173ffffffffffffffffffffffffffffffffffffffff021916908373ffffffffffffffffffffffffffffffffffffffff16021790555060006001819055506123eb806100686000396000f3fe6080604052600436106100c25760003560e01c80638a69614e1161007f578063b1283e7711610059578063b1283e7714610272578063ec5a711a146102b8578063ec979082146102f9578063fa744dd314610324576100c2565b80638a69614e146102025780638da5cb5b1461022b5780639ed9c74d14610256576100c2565b806305a7e5b7146100c7578063155e4b8214610105578063354c6199146101425780634bcbb25d1461017f57806357bde4461461019b5780636b6445b6146101c4575b600080fd5b3480156100d357600080fd5b506100ee60048036038101906100e99190611443565b610362565b6040516100fc92919061147f565b60405180910390f35b34801561011157600080fd5b5061012c60048036038101906101279190611506565b6103e3565b6040516101399190611546565b60405180910390f35b34801561014e57600080fd5b5061016960048036038101906101649190611506565b610408565b6040516101769190611546565b60405180910390f35b610199600480360381019061019491906116a7565b61042d565b005b3480156101a757600080fd5b506101c260048036038101906101bd919061173b565b61063c565b005b3480156101d057600080fd5b506101eb60048036038101906101e69190611443565b61088c565b6040516101f9929190611809565b60405180910390f35b34801561020e57600080fd5b5061022960048036038101906102249190611443565b6109b9565b005b34801561023757600080fd5b50610240610dd3565b60405161024d9190611839565b60405180910390f35b610270600480360381019061026b919061173b565b610df7565b005b34801561027e57600080fd5b5061029960048036038101906102949190611443565b611107565b6040516102af9a99989796959493929190611863565b60405180910390f35b3480156102c457600080fd5b506102df60048036038101906102da9190611443565b61122a565b6040516102f0959493929190611906565b60405180910390f35b34801561030557600080fd5b5061030e6112f0565b60405161031b9190611546565b60405180910390f35b34801561033057600080fd5b5061034b60048036038101906103469190611506565b6112f6565b60405161035992919061147f565b60405180910390f35b6000808260015481111580156103785750600081115b6103b7576040517f08c379a00000000000000000000000000000000000000000000000000000000081526004016103ae906119b6565b60405180910390fd5b600060026000868152602001908152602001600020905080600601548160070154935093505050915091565b6004602052816000526040600020602052806000526040600020600091509150505481565b6003602052816000526040600020602052806000526040600020600091509150505481565b6000825111610471576040517f08c379a000000000000000000000000000000000000000000000000000000000815260040161046890611a22565b60405180910390fd5b4281116104b3576040517f08c379a00000000000000000000000000000000000000000000000000000000081526004016104aa90611ab4565b60405180910390fd5b655af3107a40003410156104fc576040517f08c379a00000000000000000000000000000000000000000000000000000000081526004016104f390611b46565b60405180910390fd5b6001600081548092919061050f90611b95565b9190505550600060026000600154815260200190815260200160002090506001548160000181905550338160010160006101000a81548173ffffffffffffffffffffffffffffffffffffffff021916908373ffffffffffffffffffffffffffffffffffffffff1602179055508281600201908161058c9190611de9565b508181600301819055503481600401819055506002346105ac9190611eea565b81600601819055506002346105c19190611eea565b816007018190555060018160080160006101000a81548160ff0219169083151502179055503373ffffffffffffffffffffffffffffffffffffffff166001547f557e20be357a3ff3fc08cf2b8e6986333057886a281d0409a7e751c3fd700ec08460405161062f9190611546565b60405180910390a3505050565b816002600082815260200190815260200160002060010160009054906101000a900473ffffffffffffffffffffffffffffffffffffffff1673ffffffffffffffffffffffffffffffffffffffff163373ffffffffffffffffffffffffffffffffffffffff16146106e1576040517f08c379a00000000000000000000000000000000000000000000000000000000081526004016106d890611f8d565b60405180910390fd5b8260015481111580156106f45750600081115b610733576040517f08c379a000000000000000000000000000000000000000000000000000000000815260040161072a906119b6565b60405180910390fd5b836002600082815260200190815260200160002060050160009054906101000a900460ff1615610798576040517f08c379a000000000000000000000000000000000000000000000000000000000815260040161078f90611ff9565b60405180910390fd5b600060026000878152602001908152602001600020905080600301544210156107f6576040517f08c379a00000000000000000000000000000000000000000000000000000000081526004016107ed90612065565b60405180910390fd5b60018160050160006101000a81548160ff021916908315150217905550848160050160016101000a81548160ff02191690831515021790555060008160080160006101000a81548160ff021916908315150217905550857f4927fe38919783250023d27e65a3e56b6b5c3e49364e51674a41ef08d62460d98660405161087c9190612085565b60405180910390a2505050505050565b600060608260015481111580156108a35750600081115b6108e2576040517f08c379a00000000000000000000000000000000000000000000000000000000081526004016108d9906119b6565b60405180910390fd5b60006002600086815260200190815260200160002090508060010160009054906101000a900473ffffffffffffffffffffffffffffffffffffffff168160020180805461092e90611c0c565b80601f016020809104026020016040519081016040528092919081815260200182805461095a90611c0c565b80156109a75780601f1061097c576101008083540402835291602001916109a7565b820191906000526020600020905b81548152906001019060200180831161098a57829003601f168201915b50505050509050935093505050915091565b8060015481111580156109cc5750600081115b610a0b576040517f08c379a0000000000000000000000000000000000000000000000000000000008152600401610a02906119b6565b60405180910390fd5b60006002600084815260200190815260200160002090508060050160009054906101000a900460ff16610a73576040517f08c379a0000000000000000000000000000000000000000000000000000000008152600401610a6a906120ec565b60405180910390fd5b60008160050160019054906101000a900460ff16610ae1576004600085815260200190815260200160002060003373ffffffffffffffffffffffffffffffffffffffff1673ffffffffffffffffffffffffffffffffffffffff16815260200190815260200160002054610b33565b6003600085815260200190815260200160002060003373ffffffffffffffffffffffffffffffffffffffff1673ffffffffffffffffffffffffffffffffffffffff168152602001908152602001600020545b905060008111610b78576040517f08c379a0000000000000000000000000000000000000000000000000000000008152600401610b6f90612158565b60405180910390fd5b60008260050160019054906101000a900460ff16610b9a578260070154610ba0565b82600601545b9050600083600701548460060154610bb89190612178565b90506000828285610bc991906121ac565b610bd39190611eea565b905060006064600283610be691906121ac565b610bf09190611eea565b905060008183610c0091906121ee565b90508660050160019054906101000a900460ff1615610c74576000600360008b815260200190815260200160002060003373ffffffffffffffffffffffffffffffffffffffff1673ffffffffffffffffffffffffffffffffffffffff16815260200190815260200160002081905550610ccb565b6000600460008b815260200190815260200160002060003373ffffffffffffffffffffffffffffffffffffffff1673ffffffffffffffffffffffffffffffffffffffff168152602001908152602001600020819055505b60008054906101000a900473ffffffffffffffffffffffffffffffffffffffff1673ffffffffffffffffffffffffffffffffffffffff166108fc839081150290604051600060405180830381858888f19350505050158015610d31573d6000803e3d6000fd5b503373ffffffffffffffffffffffffffffffffffffffff166108fc829081150290604051600060405180830381858888f19350505050158015610d78573d6000803e3d6000fd5b503373ffffffffffffffffffffffffffffffffffffffff16897fe97cee5a4c0549d3fdc81e322b718ddf0aeb3418ec87dce4f9a7fb28d117c31283604051610dc09190611546565b60405180910390a3505050505050505050565b60008054906101000a900473ffffffffffffffffffffffffffffffffffffffff1681565b816001548111158015610e0a5750600081115b610e49576040517f08c379a0000000000000000000000000000000000000000000000000000000008152600401610e40906119b6565b60405180910390fd5b826002600082815260200190815260200160002060050160009054906101000a900460ff1615610eae576040517f08c379a0000000000000000000000000000000000000000000000000000000008152600401610ea590611ff9565b60405180910390fd5b60006002600086815260200190815260200160002090508060080160009054906101000a900460ff16610f16576040517f08c379a0000000000000000000000000000000000000000000000000000000008152600401610f0d9061226e565b60405180910390fd5b80600301544210610f5c576040517f08c379a0000000000000000000000000000000000000000000000000000000008152600401610f53906122da565b60405180910390fd5b60003411610f9f576040517f08c379a0000000000000000000000000000000000000000000000000000000008152600401610f969061236c565b60405180910390fd5b831561102c5734816006016000828254610fb99190612178565b92505081905550346003600087815260200190815260200160002060003373ffffffffffffffffffffffffffffffffffffffff1673ffffffffffffffffffffffffffffffffffffffff16815260200190815260200160002060008282546110209190612178565b925050819055506110af565b348160070160008282546110409190612178565b92505081905550346004600087815260200190815260200160002060003373ffffffffffffffffffffffffffffffffffffffff1673ffffffffffffffffffffffffffffffffffffffff16815260200190815260200160002060008282546110a79190612178565b925050819055505b3373ffffffffffffffffffffffffffffffffffffffff16857f4af71b021e799c62c158bd54636ca8da2fa26115a21a2dc6efe486ec104fd15f86346040516110f892919061238c565b60405180910390a35050505050565b60026020528060005260406000206000915090508060000154908060010160009054906101000a900473ffffffffffffffffffffffffffffffffffffffff169080600201805461115690611c0c565b80601f016020809104026020016040519081016040528092919081815260200182805461118290611c0c565b80156111cf5780601f106111a4576101008083540402835291602001916111cf565b820191906000526020600020905b8154815290600101906020018083116111b257829003601f168201915b5050505050908060030154908060040154908060050160009054906101000a900460ff16908060050160019054906101000a900460ff16908060060154908060070154908060080160009054906101000a900460ff1690508a565b60008060008060008560015481111580156112455750600081115b611284576040517f08c379a000000000000000000000000000000000000000000000000000000000815260040161127b906119b6565b60405180910390fd5b6000600260008981526020019081526020016000209050806003015481600401548260050160009054906101000a900460ff168360050160019054906101000a900460ff168460080160009054906101000a900460ff1696509650965096509650505091939590929450565b60015481565b60008083600154811115801561130c5750600081115b61134b576040517f08c379a0000000000000000000000000000000000000000000000000000000008152600401611342906119b6565b60405180910390fd5b6003600086815260200190815260200160002060008573ffffffffffffffffffffffffffffffffffffffff1673ffffffffffffffffffffffffffffffffffffffff168152602001908152602001600020546004600087815260200190815260200160002060008673ffffffffffffffffffffffffffffffffffffffff1673ffffffffffffffffffffffffffffffffffffffff1681526020019081526020016000205492509250509250929050565b6000604051905090565b600080fd5b600080fd5b6000819050919050565b6114208161140d565b811461142b57600080fd5b50565b60008135905061143d81611417565b92915050565b60006020828403121561145957611458611403565b5b60006114678482850161142e565b91505092915050565b6114798161140d565b82525050565b60006040820190506114946000830185611470565b6114a16020830184611470565b9392505050565b600073ffffffffffffffffffffffffffffffffffffffff82169050919050565b60006114d3826114a8565b9050919050565b6114e3816114c8565b81146114ee57600080fd5b50565b600081359050611500816114da565b92915050565b6000806040838503121561151d5761151c611403565b5b600061152b8582860161142e565b925050602061153c858286016114f1565b9150509250929050565b600060208201905061155b6000830184611470565b92915050565b600080fd5b600080fd5b6000601f19601f8301169050919050565b7f4e487b7100000000000000000000000000000000000000000000000000000000600052604160045260246000fd5b6115b48261156b565b810181811067ffffffffffffffff821117156115d3576115d261157c565b5b80604052505050565b60006115e66113f9565b90506115f282826115ab565b919050565b600067ffffffffffffffff8211156116125761161161157c565b5b61161b8261156b565b9050602081019050919050565b82818337600083830152505050565b600061164a611645846115f7565b6115dc565b90508281526020810184848401111561166657611665611566565b5b611671848285611628565b509392505050565b600082601f83011261168e5761168d611561565b5b813561169e848260208601611637565b91505092915050565b600080604083850312156116be576116bd611403565b5b600083013567ffffffffffffffff8111156116dc576116db611408565b5b6116e885828601611679565b92505060206116f98582860161142e565b9150509250929050565b60008115159050919050565b61171881611703565b811461172357600080fd5b50565b6000813590506117358161170f565b92915050565b6000806040838503121561175257611751611403565b5b60006117608582860161142e565b925050602061177185828601611726565b9150509250929050565b611784816114c8565b82525050565b600081519050919050565b600082825260208201905092915050565b60005b838110156117c45780820151818401526020810190506117a9565b60008484015250505050565b60006117db8261178a565b6117e58185611795565b93506117f58185602086016117a6565b6117fe8161156b565b840191505092915050565b600060408201905061181e600083018561177b565b818103602083015261183081846117d0565b90509392505050565b600060208201905061184e600083018461177b565b92915050565b61185d81611703565b82525050565b600061014082019050611879600083018d611470565b611886602083018c61177b565b8181036040830152611898818b6117d0565b90506118a7606083018a611470565b6118b46080830189611470565b6118c160a0830188611854565b6118ce60c0830187611854565b6118db60e0830186611470565b6118e9610100830185611470565b6118f7610120830184611854565b9b9a5050505050505050505050565b600060a08201905061191b6000830188611470565b6119286020830187611470565b6119356040830186611854565b6119426060830185611854565b61194f6080830184611854565b9695505050505050565b600082825260208201905092915050565b7f4d61726b657420646f6573206e6f742065786973740000000000000000000000600082015250565b60006119a0601583611959565b91506119ab8261196a565b602082019050919050565b600060208201905081810360008301526119cf81611993565b9050919050565b7f4d657461646174612063616e6e6f7420626520656d7074790000000000000000600082015250565b6000611a0c601883611959565b9150611a17826119d6565b602082019050919050565b60006020820190508181036000830152611a3b816119ff565b9050919050565b7f5265736f6c7574696f6e2064617465206d75737420626520696e20746865206660008201527f7574757265000000000000000000000000000000000000000000000000000000602082015250565b6000611a9e602583611959565b9150611aa982611a42565b604082019050919050565b60006020820190508181036000830152611acd81611a91565b9050919050565b7f496e697469616c206c6971756964697479206d757374206265206174206c656160008201527f737420302e312045544800000000000000000000000000000000000000000000602082015250565b6000611b30602a83611959565b9150611b3b82611ad4565b604082019050919050565b60006020820190508181036000830152611b5f81611b23565b9050919050565b7f4e487b7100000000000000000000000000000000000000000000000000000000600052601160045260246000fd5b6000611ba08261140d565b91507fffffffffffffffffffffffffffffffffffffffffffffffffffffffffffffffff8203611bd257611bd1611b66565b5b600182019050919050565b7f4e487b7100000000000000000000000000000000000000000000000000000000600052602260045260246000fd5b60006002820490506001821680611c2457607f821691505b602082108103611c3757611c36611bdd565b5b50919050565b60008190508160005260206000209050919050565b60006020601f8301049050919050565b600082821b905092915050565b600060088302611c9f7fffffffffffffffffffffffffffffffffffffffffffffffffffffffffffffffff82611c62565b611ca98683611c62565b95508019841693508086168417925050509392505050565b6000819050919050565b6000611ce6611ce1611cdc8461140d565b611cc1565b61140d565b9050919050565b6000819050919050565b611d0083611ccb565b611d14611d0c82611ced565b848454611c6f565b825550505050565b600090565b611d29611d1c565b611d34818484611cf7565b505050565b5b81811015611d5857611d4d600082611d21565b600181019050611d3a565b5050565b601f821115611d9d57611d6e81611c3d565b611d7784611c52565b81016020851015611d86578190505b611d9a611d9285611c52565b830182611d39565b50505b505050565b600082821c905092915050565b6000611dc060001984600802611da2565b1980831691505092915050565b6000611dd98383611daf565b9150826002028217905092915050565b611df28261178a565b67ffffffffffffffff811115611e0b57611e0a61157c565b5b611e158254611c0c565b611e20828285611d5c565b600060209050601f831160018114611e535760008415611e41578287015190505b611e4b8582611dcd565b865550611eb3565b601f198416611e6186611c3d565b60005b82811015611e8957848901518255600182019150602085019450602081019050611e64565b86831015611ea65784890151611ea2601f891682611daf565b8355505b6001600288020188555050505b505050505050565b7f4e487b7100000000000000000000000000000000000000000000000000000000600052601260045260246000fd5b6000611ef58261140d565b9150611f008361140d565b925082611f1057611f0f611ebb565b5b828204905092915050565b7f4f6e6c792063726561746f722063616e20706572666f726d207468697320616360008201527f74696f6e00000000000000000000000000000000000000000000000000000000602082015250565b6000611f77602483611959565b9150611f8282611f1b565b604082019050919050565b60006020820190508181036000830152611fa681611f6a565b9050919050565b7f4d61726b657420616c7265616479207265736f6c766564000000000000000000600082015250565b6000611fe3601783611959565b9150611fee82611fad565b602082019050919050565b6000602082019050818103600083015261201281611fd6565b9050919050565b7f5265736f6c7574696f6e2064617465206e6f7420726561636865640000000000600082015250565b600061204f601b83611959565b915061205a82612019565b602082019050919050565b6000602082019050818103600083015261207e81612042565b9050919050565b600060208201905061209a6000830184611854565b92915050565b7f4d61726b6574206e6f74207265736f6c76656400000000000000000000000000600082015250565b60006120d6601383611959565b91506120e1826120a0565b602082019050919050565b60006020820190508181036000830152612105816120c9565b9050919050565b7f4e6f2077696e6e696e672062657420746f20636c61696d000000000000000000600082015250565b6000612142601783611959565b915061214d8261210c565b602082019050919050565b6000602082019050818103600083015261217181612135565b9050919050565b60006121838261140d565b915061218e8361140d565b92508282019050808211156121a6576121a5611b66565b5b92915050565b60006121b78261140d565b91506121c28361140d565b92508282026121d08161140d565b915082820484148315176121e7576121e6611b66565b5b5092915050565b60006121f98261140d565b91506122048361140d565b925082820390508181111561221c5761221b611b66565b5b92915050565b7f4d61726b6574206973206e6f7420616374697665000000000000000000000000600082015250565b6000612258601483611959565b915061226382612222565b602082019050919050565b600060208201905081810360008301526122878161224b565b9050919050565b7f4d61726b65742068617320657870697265640000000000000000000000000000600082015250565b60006122c4601283611959565b91506122cf8261228e565b602082019050919050565b600060208201905081810360008301526122f3816122b7565b9050919050565b7f42657420616d6f756e74206d7573742062652067726561746572207468616e2060008201527f7a65726f00000000000000000000000000000000000000000000000000000000602082015250565b6000612356602483611959565b9150612361826122fa565b604082019050919050565b6000602082019050818103600083015261238581612349565b9050919050565b60006040820190506123a16000830185611854565b6123ae6020830184611470565b939250505056fea2646970667358221220cc16c40bf41513dcedae29918523833323089562a1d757462e96f6373aa1b22c64736f6c63430008140033",
  "linkReferences": {},
  "deployedLinkReferences": {}
}